:020000021000EC
:10C0000000000120011504003D1504003F15040047
:10C01000411504004315040045150400000000000C
:10C0200000000000000000000000000047150400B0
:10C0300049150400000000004B150400A50404008D
:10C040004F1504004F150400597D03004F150400DF
:10C0500031EC03004F1504004D7F03004F15040021
:10C060004F150400E90404004F1504004F150400A7
:10C070004F1504004F1504004F1504004F15040020
:10C080004F150400459703004F1504004F15040099
:10C0900079810300894D0300A57503004F15040045
:10C0A0004F1504004F1504004F1504004F150400F0
:10C0B0004F1504004F1504000000000000000000B0
:10C0C0004F1504004F1504004F1504004F150400D0
:10C0D0004F1504004F1504004F1504000000000028
:10C0E0000000000000000000000000000000000050
:10C0F0000000000000000000000000000000000040
:10C10000000000000000000000000000000000002F
:10C11000000000000000000000000000000000001F
:10C40000044B05481B1A062B02D9044B03B11847ED
:10C41000704700BF8F2600208C26002000000000FF
:10C4200005490648091A891001EBD171491002D05B
:10C43000034B03B1184770478C2600208C26002040
:10C440000000000010B5064C237843B9FFF7D8FF71
:10C45000044B13B10448AFF300800123237010BDD7
:10C46000902600200000000000B3040008B5084B2F
:10C470001BB108490848AFF300800848036813B9A6
:10C48000BDE80840CCE7064B002BF9D09847F7E70A
:10C49000000000009426002000B30400882600203D
:10C4A00000000000134B002B08BF114B9D46A3F565
:10C4B000803A00218B460F461148124A121A00F0AA
:10C4C0007BF80D4B002B00D098470C4B002B00D075
:10C4D00098470020002104000D000B4800F016F8DA
:10C4E00000F042F82000290000F09AF900F014F85A
:10C4F0000000080000000120000000000000000013
:10C500009026002010B1002041C501000023014603
:10C510001A46184600F09EB808B5074B044613B1FA
:10C52000002100F0FFF8054B1868836A03B19847B3
:10C53000204600F073F900BF25C70100B84D040084
:10C5400038B5074D074C2C1BA41005D0013C55F8FD
:10C55000043D9847002CF9D1BDE8384028F026BCAE
:10C56000882600208426002070B50F4E0F4D761BC4
:10C57000B61018BF002405D0013455F8043B984785
:10C58000A642F9D10A4E0B4D761B28F009FCB610D5
:10C5900018BF002406D0013455F8043B9847A64242
:10C5A000F9D170BD70BD00BF80260020802600201C
:10C5B000842600208026002070B4840746D0541EB4
:10C5C000002A41D0CDB2034602E0621EE4B3144615
:10C5D00003F8015B9A07F8D1032C2ED9CDB245EAB6
:10C5E00005250F2C45EA054519D903F11002264609
:10C5F000103E0F2E42F8105C42F80C5C42F8085CCA
:10C6000042F8045C02F11002F2D8A4F1100222F008
:10C610000F0204F00F041032032C13440DD91E46F0
:10C620002246043A032A46F8045BFAD8221F22F075
:10C6300003020432134404F003042CB1C9B21C44B5
:10C6400003F8011BA342FBD170BC7047144603469C
:10C65000C2E700BF2DE9F0472E4E346807468846F2
:10C6600091469A46002C37D065681F2D13DD2A4B62
:10C67000002B4AD08C2024F0DDFF0446002844D053
:10C6800033680360002330604360C0F8883077BBB4
:10C690003D46012313E08FB1D4F8880028B3D0F8C9
:10C6A000001140F825900126AE4000EB8503314390
:10C6B000022FC0F80011C3F880A007D06B1C023510
:10C6C0006360002044F82580BDE8F087D0F804318D
:10C6D0001E43C0F80461F1E7104B114C3460002B8D
:10C6E000C2D01B68C4F88830BEE70B4B6BB14FF467
:10C6F000847024F09FFF40B100216568C0F80011EC
:10C70000C0F80411C4F88800CBE74FF0FF30BDE853
:10C71000F08700BF38270020351604000000000015
:10C72000AC2600202DE9F04F83B00F460190394B25
:10C73000D3F80090B9F1000F32D09B46D9F80450DD
:10C74000D9F888806C1E11D4AD002E1D4E4445448E
:10C750004FB3B8F1000F02D0EB6F9F4223D0013CE2
:10C76000631CA5F10405A6F10406F1D12A4BBBB167
:10C77000D9F80430002B44D1D9F80030002B42D036
:10C78000CBF80030B8F1000F02D0404624F05AFF39
:10C79000484624F057FFDBF80090B9F1000FCDD1E7
:10C7A00003B0BDE8F08FD9F804303268013BA342F2
:10C7B00016BF0023C9F804403360002ACFD0D9F84F
:10C7C00004A0B8F1000F16D0D8F800110123A3403F
:10C7D0000B4210D0D8F804110B420ED155F8041CAE
:10C7E00001989047D9F804309A45A0D1DBF8003081
:10C7F0004B45B4D09BE79047F4E755F8040C9047BD
:10C80000F0E7D9F80030CB469946B9F1000F95D141
:10C81000C6E700BF3827002045160400FEE700BF2A
:10C820002DE98048B7B01EF06FF84FF0804300222A
:10C83000C3F81825C3F8042101229A60D3F8042113
:10C84000002AFBD0AC4B002416201C60062123F0EC
:10C8500095FD162023F0F0FAC0B14FF4165328933B
:10C86000FF238DF8A63008238DF8A73001238DF81B
:10C87000A9301620172328A98DF8A8408DF8AA40C2
:10C880008DF8A4008DF8A53023F002FC9B4BD3F863
:10C89000042522F00302C3F80425D3F8082542F04A
:10C8A0000302C3F80825D3F8102522F00F0242F046
:10C8B0000402C3F81025924A602182F809134FF44C
:10C8C0000071C2F8801111604FF48032C3F8042364
:10C8D0008C4B93F8542042BB03F12F0203F14F011C
:10C8E000FF2002F8010F9142FBD1864800224FF051
:10C8F000FF31072A88BF141843F8221002F1010201
:10C9000088BF84F848100C2AF3D17D4AC02182F8F0
:10C9100006134021C2F8801111607B4A4FF000419C
:10C92000C2F80413012283F854201CF069FD774AF1
:10C93000774C734E774D00231360774A2C600321A8
:10C9400011700222A270A272A27404F178026261D4
:10C95000724A23701360724A6370137004F11801F5
:10C96000704A616004F148011370E1604FF4801275
:10C97000C0212372637223746374C6F8802186F821
:10C980001413326002F18042A2F56F22A846C2F869
:10C99000083586F81113D2F80415634A1160634A0A
:10C9A0001068634A119004F1F0011160614A482156
:10C9B0001180614A6149136011A81AF04FFE2546A3
:10C9C00058B95F4B01221A7096F81633C3F341131E
:10C9D000934201F2278242F202005A4A40F2B331F6
:10C9E0001CF0A8FE1422002128A8FFF7E5FD564CF4
:10C9F000564A0C9401238DF8A8308DF8A9308DF893
:10CA0000AA3094424FF00303ADF8A0300C9B05D040
:10CA100021464F481EF0F4F81DF0BAFE0D9436ACD6
:10CA20000D9B44F8703D28A821461AF015FE20B150
:10CA3000444A4FF474711CF07DFE464B464A1A601E
:10CA4000464B474A47491A6028A828F067F828A8A3
:10CA500028F0D6F828A982B211A818F0B1FC20B1AC
:10CA6000384A40F299111CF065FE002363600623EA
:10CA7000ADF868301023ADF86A3020464FF4C87323
:10CA8000ADF86E301AF034FE20B12E4A40F2A311F8
:10CA90001CF050FE344B11AC03F1100618685968B5
:10CAA000224603C20833B3421446F7D1DFF8C0A0D0
:10CAB0004FF6FF73AAF814302C4BCAF818305146C1
:10CAC000002311A88AF816301AF0CAFD002840F099
:10CAD000E380524636A94FF0010912F8023B21F8D3
:10CAE0009C9D48468DF83E301AF0C0FD0446002853
:10CAF00040F0D3803EE000BFD42B002000900040E7
:10CB000000E100E0B02C002000600040A42D0020D7
:10CB10003C270020B0AE00201C2D0020182D002046
:10CB20000C2D00200D2D0020082D0020BE4D0400EE
:10CB3000582C0020542C0020382C00207574030041
:10CB40003C2C0020D24D04000026002000260020AE
:10CB5000F44D0400402C0020E14E0300502C002036
:10CB6000559203003B4E0400C24D040009420300ED
:10CB7000102C0020034669F3030369F307138DF8B3
:10CB80002C30030A69F3030369F307138DF82D3082
:10CB9000034669F3420301461C2228A88DF82E3073
:10CBA000FFF70AFD9DF8A03043F010038DF8A03088
:10CBB0000BAB2D939AF800308DF842300323ADF87B
:10CBC0004030234669F3030369F307138DF83830C7
:10CBD000230A69F3030369F307138DF839302346F9
:10CBE00069F342034FF0140BDBB243EA0903214619
:10CBF0005A461AA88DF83A300EAEFFF7DDFC10AF9A
:10CC00000AF10C031AAA28A9BAF802001A971B966F
:10CC1000ADF87090ADF874B01AF026FD0446002807
:10CC20003CD101461C2228A8FFF7C6FC9DF8A03085
:10CC300043F00C038DF8A0309AF800308DF84230A4
:10CC40000223ADF84030234669F3030369F3071369
:10CC50008DF83830230A69F3030369F307138DF85D
:10CC60003930234669F34203DBB243EA09035A46EB
:10CC700021461AA88DF83A30FFF79EFC0AF104030A
:10CC80001AAA28A9BAF802001A971B96ADF8709054
:10CC9000ADF874B01AF0E8FC04462CB1C14A4FF468
:10CCA000FB7120461CF046FD382200211AA8FFF730
:10CCB00083FC3822002128A8FFF77EFC0124BA4B10
:10CCC000ADF8B0402422002111A82D93FFF774FC89
:10CCD000B64AB74B8DF8504000271770B54A1B88ED
:10CCE00015931760B423B44A169311AC17600FCC98
:10CCF000B24E0FC60FCC0FC623683360B04BB14A9B
:10CD00001F60C3F80370B04BB04C136020339360C6
:10CD1000394638222046FFF74FFC1EAA92E803004E
:10CD20000223237005231CAAE37004F1100383E897
:10CD3000030092E8030004F1080320AA83E803003B
:10CD400092E8030004F1180383E8030028A92046B1
:10CD50001AF09DFF20B1934A40F2FD311CF0EAFC2D
:10CD60001C22002128A8FFF727FC4FF42033299329
:10CD70004FF470232A9303238DF8AC30944B2D93FA
:10CD800028AC944B2E930FCC934E0FC694E807001B
:10CD9000924B86E80700002291481A701AF0A6FC10
:10CDA000002841F050808F4B4FF6FF721A808E4B57
:10CDB0001870D8F80030002B01F044808B4B1A7C9F
:10CDC000002A41F03F801A745A74894A5A6118F057
:10CDD00041F8884BC0224FF40011C3F8801183F84A
:10CDE000152393F81523C2F34112012A0FD9D5F860
:10CDF0004001814A002801F02D80D2F8383143F4F7
:10CE00000013C2F838310621022018F061F8D8F872
:10CE10000030002B01F0218095F89421764B002AF8
:10CE200041F01B8083F8942183F89521734AC3F85D
:10CE30009821734B734A1A6095F8A431002B41F086
:10CE400012806D4B012283F8A4216F4B6F4A5A6008
:10CE50006F4AE02182F82310002407229C601E20E4
:10CE60001A601EF035FA054614F0BEF8694B1C80B6
:10CE7000694B162228461A7005F06CFD5E4ADFF8F1
:10CE8000788192F8A531FF2B1CBF013382F8A531C0
:10CE90001DF0B0FB0025431E002802930DDC1DF0A1
:10CEA000A9FB2E2800F3DE82012114201DF008FBCF
:10CEB000012116201DF004FBD4E21AA81DF0AEFBE0
:10CEC0000028ECD0012108461EF0ECF9524A9DF8EA
:10CED0006830127803F03F000024824288F8A541B0
:10CEE00003D11AA810F04CFA9EE2A0F111020A2A0E
:10CEF0001BD81DF071FB494B01462246186807F00C
:10CF0000C9FC09F063FC0646002800F08D82C38945
:10CF100003F03F03052B00F0ED87C38903F03F03C7
:10CF2000012B41F03D8100F0E5BFA0F11C02052A74
:10CF30007AD8981F00F03F001DF04EFB374B224679
:10CF40000146186807F0A6FC09F040FC04460028DA
:10CF500000F06A82C38903F03F03052B04D0C38924
:10CF600003F03F03012B0FD19DF868305B0603D51A
:10CF70002B49204621F064FD9DF96830002B03DA2F
:10CF80002849204621F05CFDE389A3F500739BB29C
:10CF9000E381E38903F4F053002B40F045822046FF
:10CFA00040E200BFD24D040064260020222D002064
:10CFB00074260020502D0020A02D00202C2D0020B4
:10CFC000232D0020582D002080280020682D0020CF
:10CFD000DD410300094103006C2C0020AC2C002033
:10CFE000642C0020AE2C0020882C00208C2C0020EB
:10CFF000F976030000E100E03C27002005FA030079
:10D00000502C002071FA030010E000E0FEFFFF004A
:10D0100000ED00E02C2C00206C260020D42E0020F7
:10D02000814E04008C4E040001380F2800F2FC8170
:10D030005E4B5F4D1B88013B05EB03150793EB89A6
:10D0400003F500739BB2EB81294611A802F054FC52
:10D050001198002800F0D88109F037FB00225549CB
:10D06000044607F0C3FD1EF0DFF8534B03EB8003CB
:10D070008146587822F088FD9DF8683003F03F0320
:10D08000834240F0F78622F038FFDDF869308342B2
:10D0900002D9003041F1FF31002040EA0300CDE920
:10D0A0000001002245499DF86860204607F09EFD7A
:10D0B000074609F03DF8C6F3801682465FB1FB894A
:10D0C000A3F500739BB2FB81FB8903F4F05313B902
:10D0D000384613F05BF8BAF1000F40F3CC80002221
:10D0E0003749204607F082FD07460AF0F9F8089014
:10D0F0005FB1FB89A3F500739BB2FB81FB8903F44D
:10D10000F05313B9384613F041F8304612F0A3FF3C
:10D110002B490246204607F057FD002229492046A8
:10D1200007F064FD0746002852D00022264907F088
:10D130005DFD09F0A9FC254BD3E9002310EB020BA0
:10D1400041EB030CDDE90001801A61EB0301CDE93D
:10D1500004BC10EB0A004FEAEA7B41EB0B0112F032
:10D1600096FF19490246384607F014FD50B1C389AD
:10D17000A3F500739BB2C381C38903F4F0530BB9C9
:10D1800013F004F8DDE90423DDE9000182428B415C
:10D190005FDADDE90423B2EB0A0263EB0B03CDE9AE
:10D1A0000023089E4FF0010A55E000BFF42B002039
:10D1B0002C2F0020487C040015A90400964E040082
:10D1C0009F4E0400A54E0400AD4E0400E02B00204D
:10D1D00007F0F2FD0746002800F04C8622469449ED
:10D1E00007F0D8FC934BD3E90001DDE90023121AC4
:10D1F00063EB010312EB0A0043EBEA7112F047FF05
:10D200008D490246384607F0DFFC00228B49204654
:10D2100007F0ECFC89490246384607F0D5FC0022AD
:10D220008749204607F0E2FC85490246384607F068
:10D23000CBFC484612F01FFF82490246384607F0F1
:10D24000C3FC38460FF04EFE3A467F49204607F0B1
:10D25000A1FC4FF0000AFB89A3F500739BB2FB8190
:10D26000FB8903F4F05313B9384612F08FFFBAF17B
:10D27000000F00F0FF85009B01984FF47A71A3FB2B
:10D28000012301FB0033002A73F1000104DA47F6A1
:10D29000FF70002112184B41D00B40EA4340D913D4
:10D2A00026F0F8FD0022694B26F04CFF12F0C9FE73
:10D2B00031468346204610F0A9F9002800F08A8004
:10D2C00000225E49204607F091FC00226049074693
:10D2D000204607F08BFC00900AF002F8009B824683
:10D2E0005BB1DA89A2F5007292B2DA81DA8902F4CE
:10D2F000F05212B9184612F049FF07F05DFD289070
:10D30000009028B300224E49204607F06FFC009B96
:10D310004B490246184607F057FC5A46464928989A
:10D3200007F038FC289B0093484612F0A4FE009BAF
:10D3300044490246184607F047FC289B00933046B4
:10D3400012F089FE009B43490246184607F03CFC58
:10D3500028AB01223946002010F07CF9064658B966
:10D36000BAF1000F08D03C4801F034FD3B4A137875
:10D3700043F004031370B246289850B1C389A3F553
:10D3800000739BB2C381C38903F4F0530BB912F04D
:10D39000FDFEBAF1000F0CD111A8294602F066FA81
:10D3A000484610F0F1F830B95146484622F00AFCE0
:10D3B00001E0002600E001266FB1FB89A3F50073B0
:10D3C0009BB2FB81FB8903F4F05323B9384612F07A
:10D3D000DDFE00E006465A461949204607F0F4FBF8
:10D3E0005CB1E389A3F500739BB2E381E38903F4A5
:10D3F000F05313B9204612F0C9FE002E7FF428AE78
:10D4000011A802F059FA23E6079A154B03EB021311
:10D41000DA89A2F5007292B2DA81DB8903F4F05363
:10D4200013B9284612F0B2FE0125029833E500BF79
:10D43000B24E0400E02B0020AD4E0400B84E0400B4
:10D44000C14E0400487C0400A54E040000408F40FB
:10D45000CA4E04009F4E0400D04E04007F2B0020D3
:10D460002C2F002022F049FD904B914A914CD3E99A
:10D470000067861B61EB0707CDE90467C3E900017C
:10D48000D2F8283404995B1828BF4FF0FF33C2F854
:10D490002834238823F008032380874BB3F80090B7
:10D4A00009F1FF330793079A844B03EB02130093B0
:10D4B000DB89009A03F500739BB2D38111460EA855
:10D4C00002F01AFA4FF0FF326FF00043CDE9022369
:10D4D00008940E98002800F0EC81089B1C8804F04A
:10D4E0000804A4B2002C40F0D98109F0EEF82246DD
:10D4F0007349064607F07AFB09F0C6FADDE90489AC
:10D50000B0EB080861EB0909B8F1010F79F10003EC
:10D5100080F29D81012108461DF0C4FE2246694922
:10D52000304607F063FB224607466749304607F05E
:10D530005DFB2894054608B901247EE007F03CFC19
:10D5400028900028F8D022466049284607F04EFB74
:10D55000824608F0EDFD0446BAF1000F0ED0BAF88D
:10D560000E30A3F500739BB2AAF80E30BAF80E3055
:10D5700003F4F05313B9504612F008FE4B4BD3E9B5
:10D58000002312EB080243EB0903121B63EBE47365
:10D590004FF47A74A2FB040104FB03110B4600282C
:10D5A00073F10001024604DA47F6FF7000211218F9
:10D5B0004B41D00B40EA4340D91326F06BFC444B5F
:10D5C000002226F0BFFD12F03CFD00224149289CBC
:10D5D0008246284607F00AFB3E490246204607F0ED
:10D5E000D9FA044609F07CFE83465CB1E389A3F5D1
:10D5F00000739BB2E381E38903F4F05313B920462F
:10D6000012F0C4FD5946284610F000F800223249B5
:10D61000DDF8A0B00446284607F0E8FA2E49024695
:10D62000584607F0D1FA52462B49284607F0B2FA7D
:10D6300052462349289807F0C7FA00222749304666
:10D6400007F0D4FA8246002C65D0DDF8A0B0BBF11B
:10D65000000F07D028AB0122394600200FF0FAFF57
:10D66000834619E05A461E49304607F0BFFA39464C
:10D6700002460990584610F08DF8099B83465BB12D
:10D68000DA89A2F5007292B2DA81DA8902F4F052F4
:10D6900012B9184612F07AFDBBF1000F3BD1BAF176
:10D6A000000F1FD14FF0000A35E000BFE02B002033
:10D6B0003C2700202C2C0020F02B00202C2F0020B9
:10D6C000AD4E0400B84E0400B24E0400964E040065
:10D6D00000408F409F4E0400C14E0400FD4E0400E8
:10D6E000064F0400A44801F075FBA44A137843F0E8
:10D6F00004031370BAF80E30A3F500739BB2AAF8B6
:10D700000E30BAF80E3003F4F053002BCAD1504655
:10D7100012F03CFDDA46289850B1C389A3F5007396
:10D720009BB2C381C38903F4F0530BB912F02EFDF1
:10D73000002D5ED000229249284607F02BFA002CDB
:10D740004BD000228F49284607F050FA044609F0D2
:10D75000C7FD83465CB1E389A3F500739BB2E38107
:10D76000E38903F4F05313B9204612F00FFDBBF127
:10D77000000F32D1844B1C88844B013C240104EB04
:10D78000030B0122BBF80E3003F500739BB2ABF81C
:10D790000E302946584606F0AFFA002840F0708354
:10D7A0007A4B1C44E389A3F500739BB2E381E389C0
:10D7B00003F4F05313B9584612F0E8FC7449002200
:10D7C000284607F013FA1DF02FFD04460FF0DCFE8B
:10D7D000014610B9204622F0F5F9EB89A3F5007354
:10D7E0009BB2EB81EB8903F4F05313B9284612F096
:10D7F000CDFCBAF1000F09D0504609F045F918EBFD
:10D80000000849EB0109D7B100240BE000990EA8EC
:10D8100002F02CF8002F00F061844FF0FF384FF039
:10D82000FF390124FB89A3F500739BB2FB81FB89BF
:10D8300003F4F05323B9384612F0A8FC00E03C464C
:10D84000B8F1000F79F100034FF0010507DBDDE9C6
:10D850000223904579EB030301DACDE902895CB933
:10D860004946404612F013FC4A490246304607F04A
:10D87000ABF90EA802F020F8002E3FF42AAEF3898F
:10D88000A3F500739BB2F381F38903F4F053002BEB
:10D890007FF41FAE304612F079FC1AE6C389A3F577
:10D8A00000739BB2C381C38903F4F0530BB912F028
:10D8B0006DFC364B079A03EB0219B9F80E30A3F54D
:10D8C00000739BB2A9F80E30B9F80E3003F4F05390
:10D8D00013B9009812F05AFC002012F01FF8064607
:10D8E000002800F0F680014610A802F005F8002399
:10D8F00000931098002800F0DF8008F0E6FE002278
:10D900002549044607F072F9074609F0E9FC80460C
:10D910005FB1FB89A3F500739BB2FB81FB8903F424
:10D92000F05313B9384612F031FCB8F1000F40F053
:10D93000AB8042461949204607F058F9424618493B
:10D940000746204607F052F94246119015492046F5
:10D9500007F04CF9424604901349204607F046F977
:10D96000049B834613BB224610A9304611F0C6FE25
:10D970004FF0000A75E000BF0B4F04007F2B002022
:10D98000A54E0400CA4E0400F42B00202C2F0020CA
:10D99000487C0400AD4E04003B4F0400454F04009A
:10D9A0004E4F0400584F04005F4F04000028DAD0A7
:10D9B000119B002BD7D0002FD5D042467549049833
:10D9C00003F030FA424681467349584603F02AFA7A
:10D9D0008046B9F1000F00F0D783B9F80E3003F09C
:10D9E0003F03062B05D0B9F80E3003F03F03072B99
:10D9F00010D1B8F1000F0DD0B8F80E3003F03F038E
:10DA0000062B00F06E83B8F80E3003F03F03072BAF
:10DA100000F06783B9F80E3003F03F03062B06D001
:10DA2000B9F80E3003F03F03072B40F0AD83B8F197
:10DA3000000F00F0AE83B8F80E3003F03F03062B62
:10DA400006D0B8F80E3003F03F03072B40F0A18357
:10DA50004FF0000A4146484613F013F8BAF1000FA0
:10DA600081D0119A0498594612F0DFFF77B1FA89F4
:10DA7000A2F5007292B2FA81FA8902F4F0522AB940
:10DA8000384612F083FB01E0002300E05346009A81
:10DA90001A43D3B200935CB1E389A3F500739BB240
:10DAA000E381E38903F4F05313B9204612F06EFBCF
:10DAB00010A801F001FF1CE7F389A3F500739BB2E6
:10DAC000F381F38903F4F05323B9304612F05EFB7F
:10DAD00000E0009015F03AF8304C38B9009B2BB9B3
:10DAE0002DB9D4F82C341B890BB907E0012500218E
:10DAF00084F8A51115B101201DF0D4FB00F006FD3E
:10DB0000002867D1D4F82C341B89002B62D0012166
:10DB100008461DF0C7FBD4F82C040189002945D024
:10DB200006F071F808F052FE00221D49054607F084
:10DB30005DF800221B490746284607F057F80022E7
:10DB400080461949284607F051F806465DB1EB8931
:10DB5000A3F500739BB2EB81EB8903F4F05313B987
:10DB6000284612F013FB3246394640460FF012FEAB
:10DB70005EB1F389A3F500739BB2F381F38903F4DB
:10DB8000F05313B9304612F001FB4146384612F00B
:10DB900078FFC0E76B4F0400704F04003C27002063
:10DBA000764F04007B4F0400064F040001201DF057
:10DBB00079FB00F0ABFC50B9BE4BD3F8282440F6FB
:10DBC000CB4000230021904271EB030302DB0123D1
:10DBD00084F8303494F830347BB1B74A138E23F094
:10DBE00010031B041B0C1386B24B002283F8302455
:10DBF0001DF0C0F9B1481DF04DF8B14D2B8803F46C
:10DC0000E073002B5AD0012108461DF04BFB2E88F3
:10DC1000F0051DD526F480732B8005F01DF91DF04D
:10DC200027FD13F0C3F94289013A4281C289A2F566
:10DC3000007292B2C281C38903F4F0530BB912F09F
:10DC4000A5FA1CF061FE13F0CFF9002004F082FE6B
:10DC5000710618D52B8823F040032B8002F082FF39
:10DC600005F0FAF81DF004FD13F0DCF901200021A5
:10DC700021F066FD1CF048FE1FF03EFA1DF01CFD71
:10DC800000201DF0C3FB320614D52B8823F080033F
:10DC90002B8005F0E1F81DF0EBFC13F0C3F91CF04C
:10DCA00033FE21F017FD1FF027FA1DF005FD0020BF
:10DCB0001DF0ACFB002101201DF0F4FA94F8A53111
:10DCC000012B1ED1DDE90223B2F5A47F73F100031D
:10DCD00017DB784B7B4AB3F832542123ADB235B110
:10DCE000013B0ED002EB051535F80C5CF7E701217E
:10DCF00008461DF0D7FA02F035FF294601201DF035
:10DD0000D1FA94F8A5216B4B012A6ED993F8A6118C
:10DD100093F8A721914268D193F8342493F83534CD
:10DD20009A4262D1DDE9020141F6B86200238242E3
:10DD300073EB0105B8BF10464FF47A75B8BF1946AA
:10DD4000A0FB052305FB0133002A73F1000104DA6F
:10DD500047F6FF70002112184B41D00B40EA4340B8
:10DD6000D91326F097F80022574B26F0C1F800226D
:10DD7000564B25F00BFF0022554B26F0E3F926F019
:10DD80008FFB014688B3534B1B68002B00F08F803C
:10DD9000042840F28A80D4F89831002B00F0878064
:10DDA0004D4820F069FE014610B14C481CF028FF98
:10DDB0004B4B4C4E00221A701D4637462B7803F011
:10DDC000FF017BB93078FF2801D01DF04FFA22F017
:10DDD0000DFD3878FF2802D001211DF047FA22F00E
:10DDE0008CF8EBE73C481AF08DF904F02DFB324A31
:10DDF000138E03F4C0538BB1138ED4F8380423F47C
:10DE0000C0531B041B0C138612F059FE18B1294B8A
:10DE10000022C3F8282401201DF0E2F81DF072F85A
:10DE2000FFF72CB8D4F840313BB1D5F8383143F482
:10DE30008003C5F83831FEF7D5BD4FF48003336059
:10DE4000FEF7D0BD0820284A4FF40F711BF072FC7A
:10DE5000FEF7BDBF1960FEF7D6BF082123481CF0AE
:10DE6000CFFEFEF7E6BF224AE42185201BF062FCCC
:10DE7000FEF7EBBF002C3FF4C3AA0026FFF7B1BAB0
:10DE800001460990584606F09DFA099BDA89A2F5E9
:10DE9000007292B2DA81DA8902F4F052002A7FF439
:10DEA0007FAC184612F072F97AE407217DE7082169
:10DEB0007BE700BF3C270020D42E0020804F0400C9
:10DEC0002C2C00202C2F00200000E04000407F4040
:10DED00000408F40B0AE0020C0280020B04F0400AA
:10DEE000F82B00207C260020D24D0400CA4F0400ED
:10DEF000E54F04000022B149304606F077FE0446A3
:10DF000060B1E38903F03F03052B00F08F80E389C4
:10DF100003F03F03012B40F0418187E008251A20E0
:10DF200012F004F8074600287AD00146002228A8FB
:10DF300001F034FF9DF86840012303FA05F5A409B8
:10DF4000013D01346DB24FF000094FF0000A1AABE9
:10DF5000534428A859780AF1010A294001F0DCFC51
:10DF6000A245F4D198F8A61198F8A7319DF8682039
:10DF7000994202F03F0202D12B98A8B91FE098F80D
:10DF8000A73103EB8303434493F8A83103F03F0325
:10DF90009342F1D11AA81CF041FB9DF86840A409F6
:10DFA00009F101090134D0E7C389A3F500739BB2DD
:10DFB000C381C38903F4F0530BB912F0E7F80022D0
:10DFC0007F490F97304606F065FC0446A8B101462C
:10DFD0000FAB012230460FF03DFB002840F00081DE
:10DFE000784800F0F7FE784A75491378304643F0D8
:10DFF0000403137006F09CFCF2E0024673493046BD
:10E0000006F0F4FD044600283AD0C38903F03F032C
:10E010000F2B35D9C38903F03F03262B30D842E0BC
:10E020008146029BC9EB03030293B9E000226849D1
:10E03000204606F0DBFD074608F07AF805465FB19A
:10E04000FB89A3F500739BB2FB81FB8903F4F053BA
:10E0500013B9384612F09AF8EDB2EB1F022B00F21A
:10E060009D80E389A3F500739BB2E381E38903F408
:10E07000F053002B7FF453AF204612F087F84EE7A1
:10E080000F9A5249304606F085FDFB89A3F50073CF
:10E090009BB2FB81FB8903F4F053002BC1D13846BE
:10E0A00012F074F8BDE709F0CEF805460F9809F0B4
:10E0B000CAF82844B0F5007F04D9434A137843F0E6
:10E0C00002031370B5F5007F80F08A80C5F50073F8
:10E0D00000220F99204608F015FD81E00125FFF789
:10E0E000CBBB11AB0122049948461DF00DF92890D5
:10E0F000002847D006F032F9031E079332DD28AB23
:10E100000122594640461DF0FFF8824620B3C289DD
:10E1100002F03F020A2A04D0C28902F03F020F2A0D
:10E120000BD1504609F0DCF838B9012011F093FF0B
:10E1300028490246204606F047FDBAF80E20A2F50F
:10E14000007292B2AAF80E20BAF80E2002F4F05231
:10E1500012B9504612F01AF8384607F0E9FF079B4B
:10E1600003443B60289850B1C389A3F500739BB268
:10E17000C381C38903F4F0530BB912F007F84FF0D1
:10E18000010A67E4824665E41349012000F02AFD94
:10E190004DE41249012000F025FD59E4082560E70F
:10E1A000F389A3F500739BB2F381F38903F4F05371
:10E1B000002B7FF439A93046FFF734B90050040032
:10E1C000404E0400484E04007F2B00207C4E04008B
:10E1D000095004003B4F0400125004005550040045
:10E1E000E389A3F500739BB2E381E38903F4F05361
:10E1F000002B7FF44AAF204611F0C8FF45E700BF6F
:10E20000F8B555EC114B11EE102A51EC100B2B46C2
:10E2100025F098FF0F46064626F01AF925F002FE73
:10E2200002460B463046394625F0AEFC22462B46C8
:10E2300025F05EFE41EC100BF8BD2DE9F0410646DD
:10E2400092B028201FF092FD08B900203FE0214D38
:10E25000A846FF272868B0F90230292B34D00EB326
:10E2600012AC04F8447D1FF04BF801460DF1050097
:10E2700026F054FC22460021304606F007FD0446F5
:10E2800010B920F027F8E0E712F06CFAE389A3F563
:10E2900000739BB2E381E38903F4F05313B9204682
:10E2A00011F074FF4FF480701FF060FD0028CCD097
:10E2B000D8F80030B3F90230292BCBD02C201FF036
:10E2C00055FD0028C5D1C0E718461FF04FFD12B01C
:10E2D000BDE8F081D02E0020034A138E23F03F03C7
:10E2E0001B041B0C13867047D42E00202DE9F84325
:10E2F0000F460646002856D0C38903F03F03052B7E
:10E3000004D0C38903F03F03012B4CD1002267499D
:10E31000304606F06BFC0546E8B9654B6549186860
:10E320002A4606F063FC044610B90020BDE8F883D5
:10E330002A46614906F05AFCE389A3F500739BB2B3
:10E34000E381E38903F4F053054613B9204611F045
:10E350001DFF002DE9D0AE421AD0002239462846D2
:10E3600006F098FA044620B939462846FFF7BEFF62
:10E370000446EB89A3F500739BB2EB81EB8903F4B0
:10E38000F05313B9284611F001FF2046BDE8F88389
:10E39000F389A3F500739BB2F381F08910F4F05474
:10E3A000C3D13046EFE7304606F0D1FEDFF80081FA
:10E3B0000446002CB9D000222146D8F8000006F00F
:10E3C00069FA30B93D49204626F03EFA002835D199
:10E3D00065E008F0FBF9064611F093FE002860D0D6
:10E3E00000223549304606F001FC8146002858D00D
:10E3F0000022394606F04EFAB9F80E30A3F5007344
:10E400009BB2A9F80E30B9F80E3003F4F05305466C
:10E4100013B9484611F0BAFE5EB1F389A3F5007353
:10E420009BB2F381F38903F4F05313B9304611F032
:10E43000ADFE002DC6D02846BDE8F8832049204611
:10E4400026F002FA58B31F49204626F0FDF930B3F2
:10E450001D49204626F0F8F908B31C49204626F04D
:10E46000F3F9E0B11A49204626F0EEF9B8B119499E
:10E47000204626F0E9F990B11749204626F0E4F944
:10E4800068B11649204626F0DFF940B12046094917
:10E49000084C26F0D9F9002808BF002489E7104C61
:10E4A00089E7002E8ED00025B7E700BF1451040085
:10E4B000D42E00209E5004006D560400A550040088
:10E4C000B0500400C2500400CC500400D8500400E6
:10E4D000E3500400EF500400FA5004000751040018
:10E4E00088A3040010B4084CA36A002BC8BF0133F2
:10E4F0000A46CBBF0146014654F8230020685DF868
:10E50000044B06F0C7B900BFD42E0020024B188E72
:10E51000C0F30010704700BFD42E00202DE9F04F4B
:10E5200085B015461C4602460B4606460F46DDF8EA
:10E5300038B0DDF83CA025F075FF10B122468A49BD
:10E540001CE027F000494FF0FF32884B3046494627
:10E5500025F068FF38B94FF0FF32844B304649460A
:10E5600025F056FF80B1002200233046394625F0C1
:10E5700031FF224608B17E4900E07E49284605B0B9
:10E58000BDE8F04F26F0D8BB0022002330463946C4
:10E5900025F020FF38B1013C75D02D232B7007F1F9
:10E5A00000431F46013568A3D3E9002330463946AE
:10E5B00025F0ECFA25F04CFF39468046304625F030
:10E5C00047FF0130804504D1404625F02BFC06462C
:10E5D0000F469FED5F7B8DED007B584625F022FCBA
:10E5E000DDE90023CDE9020125F082FC32463B46FD
:10E5F0008046894625F0F8FE70B3CDE90089ECE746
:10E60000DDE900233046394625F09CFD25F020FF4A
:10E61000804625F007FCDDE9002325F069FC024671
:10E620000B463046394625F0AFFA013C06460F4608
:10E6300029D0B8F1090FD4BF08F1300808F1570804
:10E640005FFA88F8DDE9000105F8018BDDE90223B6
:10E6500025F078FDCDE900010022474BDDE90001FE
:10E66000A84625F0CBFE0028CAD1BAF1000F07DA80
:10E67000002200233046394625F0CAFE08B95BE087
:10E680005AD0013C01D12C7059E0A9462E2309F83B
:10E69000013B32463B46DDE9020125F029FC2C44D2
:10E6A00006460F460AF10B030A2BC8463AD826A3A2
:10E6B000D3E900233046394625F0AAFE00283BD096
:10E6C00025A3D3E900233046394625F05FFA25F02B
:10E6D000BFFE804625F0A6FB02460B463046394673
:10E6E00025F052FA02460B46DDE9020125F000FC56
:10E6F000A14506460F4603D1002389F800301EE0ED
:10E70000C34508BF0BF1FF38B8F1090FD4BF08F1BA
:10E71000300808F157085FFA88F809F8018B0AF108
:10E72000FF3ABFE7BAF1000F06DDBAF1010FC7D11A
:10E730000BA3D3E90023C6E7002388F8003005B017
:10E74000BDE8F08FAFF3008048AFBC9AF2D77A3EB5
:10E75000000000000000F03F3A8C30E28E79453E28
:10E760009A9999999999D93F1E510400FFFFEF7F1B
:10E7700022510400235104000000F03F30B52AB1BB
:10E780000028BFBF2D220A704042013104460122F9
:10E790009C4203D3B4FBF3F40132F9E70A44144674
:10E7A000B0FBF3F503FB15000928D4BF3030573018
:10E7B000C0B204F8010DA1422846F1D10023137024
:10E7C00030BD2DE9F047054690B00E4692461C46F6
:10E7D0009AF80030002B00F05281252B40F00F8179
:10E7E0009AF801706A2F0AF1020900F0E8802CD82B
:10E7F000632F73D012D8302F3CD04C2F40F03F8184
:10E800009AF80230782B03BF0AF103090022102383
:10E81000012218BF0A2304F1040852E0642F47D0F4
:10E82000662F40F02C810A224FF0FF338DE80C0058
:10E83000073424F0070420230DEB0302D4E9000180
:10E8400004F10808FFF76AFE3FE0732F41D009D8B2
:10E85000702F00F0CD80712F40F011813146894832
:10E86000A84744E0762F42D0782F26D0742F40F06E
:10E870000681B0E09AF8033020689AF80270782B8D
:10E8800007BF102300220A23012208A9FFF776FF01
:10E8900008A826F0B5F904F10408303F0AF104098C
:10E8A0000446BC42314611DA7748A8470134F8E7FC
:10E8B00004F104080A23012203E004F104081023F0
:10E8C000002208A92068FFF759FF314608A8A84789
:10E8D000A0E004F1040831462068F8E723688DF8C9
:10E8E0002030002304F104088DF82130EDE7206882
:10E8F000002112F005F9002204F104088DF821200E
:10E900000446002856D0C38903F03F030F2B51D98A
:10E91000C38903F03F03262B4CD87EE0079B03B14D
:10E920009B5C8DF82030712F40F09080082B7DD0BB
:10E930000C2B7DD00A2B7DD0072B7DD00D2B7DD0CD
:10E94000092B7DD05C2B7DD0222B7DD0A3F1200222
:10E95000D2B25E2A4D4965D95C220A7078224A708B
:10E96000C3F30712092A03F00F0394BF3032373282
:10E97000092B94BF30333733D2B2CB7000238A7067
:10E980000B7142483146A84703A801F091F8039A59
:10E99000049B9A42C2D3069800285AD1E389A3F572
:10E9A00000739BB2E381E38903F4F05313B920466B
:10E9B00011F0ECFB712F2DD13146324887E7002151
:10E9C000206812F09DF833462A46132104F104080A
:10E9D00015F092F81EE004F104082468002C45D0DC
:10E9E000E38903F03F03022B40D1294831466EE70B
:10E9F000217808A804F104081CF08EFB65E78DF867
:10EA000020303146002308A88DF82130A8470AF1AC
:10EA10000109A0464446CA46DAE6014603A801F0C9
:10EA2000BDF9B4E700224A700B70AAE71948A9E7BC
:10EA30001948A7E71948A5E71948A3E71948A1E726
:10EA400019489FE719489DE719489BE7314608A8F0
:10EA500099E7C389A3F500739BB2C381C38903F40B
:10EA6000F053002B9AD111F091FB97E7204606F066
:10EA70006EFB0028BAD1204611F062F9B6E710B05B
:10EA8000BDE8F0874251040023810400782B002068
:10EA9000445104002C5104002F5104003251040051
:10EAA00035510400385104003B5104003E5104002C
:10EAB000415104000CB407B504AB53F8042B019387
:10EAC000FFF77FFE03B05DF804EB02B0704710B5AE
:10EAD0008AB00146002205A8194C01F05FF905A88B
:10EAE00000F09CFF206804ABC169806E03AA08F0A7
:10EAF0001AF92368B3F866301BB1039A013A13443C
:10EB00000393049B00930F4A039B0F4805A9FFF74B
:10EB1000D1FF22680C48D269002305A91EF020FB12
:10EB2000089850B1C389A3F500739BB2C381C38910
:10EB300003F4F0530BB911F029FB0AB010BD00BF6C
:10EB4000D02E002049510400E55F020070B5204C32
:10EB5000204906460122606805F09CFE054670B11A
:10EB6000314605F0FFFEEB89A3F500739BB2EB8104
:10EB7000EB8903F4F05313B9284611F007FB238EF9
:10EB80009BB243F020032386134B1B68F3B1104B59
:10EB9000124958681A2206F029F80546B0B1104902
:10EBA00008F02EF82846FFF792FFEB89A3F50073D3
:10EBB0009BB2EB81EB8903F4F05313B9284611F0B3
:10EBC000E5FA238E9BB243F08003238670BD00BF1D
:10EBD000D42E002059510400D02E00206051040092
:10EBE000675104000EB470B5384B1A8E12F07006DF
:10EBF00087B0044664D11CF0BDF91A2011F096F9D3
:10EC0000054610B91FF066FB5AE00146324601A8DE
:10EC100001F0C4F801A800F001FF0CAB2C480B9ADE
:10EC2000009301A9FFF7CDFD049850B1C389A3F566
:10EC300000739BB2C381C38903F4F0530BB911F085
:10EC4000A5FA64B3012C03D1284617F04BFC16E05B
:10EC5000022C03D1284617F041FC10E0032C03D10D
:10EC6000284617F037FC0AE0042C03D1284617F099
:10EC70002DFC04E0052C04D1284617F023FC0446A3
:10EC800000E00024EB89A3F500739BB2EB81EB89D4
:10EC900003F4F05323B9284611F078FA00E02C462B
:10ECA0002046FFF753FF5CB1E389A3F500739BB2E5
:10ECB000E381E38903F4F05313B9204611F066FAB7
:10ECC00007B0BDE8704003B0704700BFD42E0020ED
:10ECD000E55F020080B50A4B00AFDB1BB3F5007F98
:10ECE0000BD208490120FFF77DFF074A138E9BB224
:10ECF00043F010031386002080BD012080BD00BFBB
:10ED000010B100206C510400D42E002008B5104A28
:10ED1000936A002B07DC0F490420FFF763FFBDE86F
:10ED200008401FF0D7BA591E0133916252F82300F0
:10ED300060B1C389A3F500739BB2C381C38903F497
:10ED4000F0531BB9BDE8084011F020BA08BD00BF60
:10ED5000D42E0020A051040008B50C498B6A072B63
:10ED600007DD0B490120FFF73DFF1FF0B3FA00203C
:10ED700008BD5A1C8A62C289023302F5007292B23F
:10ED8000C28141F82300012008BD00BFD42E00201D
:10ED9000B85104000FB437B506AC54F8045B1CF04E
:10EDA000E9F809481BF076FF23462A460021074868
:10EDB0000194FFF706FD06481BF06CFF03B0BDE8A9
:10EDC000304004B0704700BFDA51040095AC030036
:10EDD000394E04000FB437B506AC54F8045B1CF090
:10EDE000C9F809481BF056FF23462A460021074868
:10EDF0000194FFF7E6FC06481BF04CFF03B0BDE8AA
:10EE0000304004B0704700BFE451040095AC0300EB
:10EE1000394E04002DE9F04FB1B007460993DDF8F3
:10EE2000E8900C4609B98047D9E0012903D131B0F7
:10EE3000BDE8F04F0047B1F5004F02D11046B8478A
:10EE4000ECE011F400434FF0000B4FEAE10401F055
:10EE500007081ABF0C924FF0010A9A4624F4805416
:10EE60005D465E4614F0070267D04D45B6BF099B6C
:10EE7000002153F82510062A05F101054ED0BAF1FC
:10EE80000B0F06DD67480B920A91FFF7A3FF0B9A61
:10EE90000A99013A052A4ED8DFE802F00309242B2B
:10EEA000324330AB03EB8A0242F8901C17E00A9120
:10EEB00011F0B2F80A99064660B14D450ADC3046B9
:10EEC00004F0DCFE4D45B6BF099B002153F8251028
:10EED0000135F2E730AB03EB8A0242F8906C0AF19D
:10EEE000010A28E00AF1010208460A9208F0F8F93E
:10EEF0000CE00AF1010208460A9207F019F905E050
:10EF00000AF1010208460A921CF05BF930AB03EBF0
:10EF10008A030A9A43F8900C92460CE0BAF10A0F61
:10EF2000B0DC084607F066FC30AB03EBCB0242E9ED
:10EF300018010BF1010BE41094E7BAF1040F1ADC8D
:10EF40000CA80FC8BBF1000F0ED0B8F1060F9DED55
:10EF50001E3B9DED1C2B9DED1A1B9DED180B01D149
:10EF6000B8471EE0B84721E0B8F1060F01D1B84715
:10EF700017E0B8471AE014A890E83140119B1399A4
:10EF8000129A0193109B0490CDF81CE0069505940D
:10EF90000391029200930CA8B8F1060F0FC804D198
:10EFA000B84755EC104B26B931E0B8470446002568
:10EFB0005EB1F389A3F500739BB2F381F38903F487
:10EFC000F05313B9304611F0E1F808F1FF38B8F109
:10EFD000050F23D8DFE808F0030305150F1B2046B3
:10EFE0001DE054EA050314BF0120002031B0BDE844
:10EFF000F04F11F030B8E0B231B0BDE8F04F11F091
:10F000003AB8204631B0BDE8F04F11F02CB8204698
:10F01000294631B0BDE8F04F11F013B8002031B0EF
:10F02000BDE8F08FEC510400A0F13003DAB2092AF8
:10F0300001D818467047A0F16103192B01D8573841
:10F040007047A0F14103192B94BF37384FF0FF30C0
:10F050007047242910B504DD0AB101231370002084
:10F0600010BD03681A78302A31D15A1C02605A78D0
:10F0700002F0DF024F2A08D131F0080201D018292E
:10F08000EDDD02330360082222E0582A08D131F076
:10F09000100201D02129E2DD02330360102217E0C3
:10F0A000422A08D131F0020201D00B29D7DD023308
:10F0B000036002220CE0082251B913F8010FA0F1FD
:10F0C0003004092C04D8382828BF0A22F5E70A2280
:10F0D000481E232894BF0846104610BDA0F109031E
:10F0E000042B06D900F07F00A0F1200358425841BC
:10F0F0007047012070472DE9F74F17460190019A9C
:10F1000014782046FFF7EAFF10B101320192F6E7CA
:10F110002D2C03D101320192012604E02B2C04BFD7
:10F1200001320192064602A83A4650F804ADFFF7B4
:10F1300090FF834630B3002400254FEAE07901991F
:10F14000087818B1FFF770FF002806DAAFB1C1EBFD
:10F150000A035942594139700FE08345F6DD0BFB34
:10F1600005F304FB0933ABFB04451D44241801F1EE
:10F17000010145EBE0750191E1E736B1604265EBD5
:10F18000450104E00020002101E02046294603B0AB
:10F19000BDE8F08F00221146ADE700F00F02012A12
:10F1A00002D191F9003008E0022A02D1B1F9003011
:10F1B00003E0042A0CBF0B680023C10605D4D2006B
:10F1C000012101FA02F2013A1340184670472DE975
:10F1D000F04191F80080B8F1010F8AB007460E4661
:10F1E0001DD024D3B8F1020F26D10D1D0FCD6C46D2
:10F1F0000FC40FCD0FC495E803006D4684E80300EB
:10F20000311D684600F0B7FD0FCD3E1D0FC60FCD76
:10F210000FC694E80300009B86E803000CE04B68EF
:10F2200053B1DA8902F5007292B2DA8104E0043156
:10F23000043000F0A0FD7B6887F8008038467B60D2
:10F240000AB0BDE8F081F0B50378012B87B006461F
:10F250000F4603D008D3022B17D03AE040680028AD
:10F2600037D005F07FFB34E0043669B3CB8903F077
:10F270003F030F2B28D9CB8903F03F03262B23D83C
:10F280000978304600F000FD23E0041D214601A866
:10F2900000F071FD2046394600F004FD306950B1A0
:10F2A000C389A3F500739BB2C381C38903F4F053F0
:10F2B0000BB910F06BFF01AD0FCD0FC42B682360AD
:10F2C000002386F8283004E0384606F031FFC1B24A
:10F2D000D7E7384607B0F0BD70B50378012B07D0EB
:10F2E0001FD3022B26D10430BDE8704000F059BC7A
:10F2F00046681EB1304607F0E8F90646304607F08A
:10F3000079FA04460D46C6B1F389A3F500739BB2A2
:10F31000F381F38903F4F0537BB9304610F036FFE4
:10F320000BE0436913B14268985C00E0184624F092
:10F3300069FD70BD0020002170BD2046294670BDCA
:10F3400038B50378012B07D02DD3022B32D10430EE
:10F35000BDE8384000F046BC456895B1EB8903F044
:10F360003F030E2B2AD0EB8903F03F030F2B04D968
:10F37000EB8903F03F03142B20D9284607F0A5F9A9
:10F380000546284606F0D4FE0446ADB1EB89A3F548
:10F3900000739BB2EB81EB8903F4F05363B9284609
:10F3A00010F0F4FE08E0436913B14268985C38BD80
:10F3B000184638BD002038BD204638BDB5F90800D4
:10F3C00038BDF0B50378012B87B0074603D007D3CB
:10F3D000022B12D031E0406880B307F076F92DE0BF
:10F3E00043690BB142689B5C8DF8043001A800238F
:10F3F0008DF8053011F062FA20E0041D214601A8C5
:10F4000000F0B9FC204600F010FC0646386950B107
:10F41000C389A3F500739BB2C381C38903F4F0537E
:10F420000BB910F0B3FE01AD0FCD0FC42B682360F4
:10F43000002387F82830304600E0002007B0F0BDF8
:10F4400008B50378012B04D00BD3022B13D1406AEB
:10F450000AE0406880B1C38903F500739BB2C381A1
:10F4600008BDC2684068104410F0FDFD0021BDE8F1
:10F47000084010F0E9BF002008BD38B504460D462D
:10F4800071B3CB8903F03F03032B13D0CB8903F077
:10F490003F03052B0ED0CB8903F03F03012B09D08E
:10F4A000CB8903F03F03062B04D0CB8903F03F0345
:10F4B000072B08D12046012300F8043B2946BDE86C
:10F4C000384000F019BACB8903F03F03042B07D171
:10F4D000022300F8043B0022BDE8384000F0F6BCEF
:10F4E000284610F035FE40B12046002200F8042BDB
:10F4F0002946BDE8384000F051BC38BD037D63B1FA
:10F50000C06850B1C389A3F500739BB2C381C3899E
:10F5100003F4F0530BB910F039BE7047F0B50D4647
:10F520008BB00446002866D0C38903F03F030C2B40
:10F530000AD0C38903F03F030B2B5CD9C38903F0C6
:10F540003F03192B57D823E006F0F2FD2489631EF0
:10F55000344C04EB03140246E38903F500739BB2B9
:10F56000E3812146684600F0B1FC2946684600F078
:10F5700099FB6846FFF7C2FFE389A3F500739BB2CE
:10F58000E381E38903F4F053002B49D120462FE0B7
:10F5900005F0E8F9E38903F03F030B2B40D9E38939
:10F5A00003F03F03192B3BD8A388002B38D0E58804
:10F5B0009D4235D1013D1B4F2D01EE19F38903F515
:10F5C00000739BB2F381F38903F03F030F2B18D92B
:10F5D000F38903F03F03262B13D83D44EB89A3F5B1
:10F5E00000739BB2EB81EB8903F4F053C3B930464F
:10F5F00010F0CCFD14E022460B490120FFF7F2FA8F
:10F600000EE07B1900215A89013A5A81A1805A895A
:10F61000013A5A813046E180214606F02FFEDCE7B0
:10F620000BB0F0BD2C2F00201D5204000378012BDD
:10F6300003D004D3022B0FD07047406800E000696C
:10F6400060B1C389A3F500739BB2C381C38903F47E
:10F65000F0531BB910F09ABD04304FE7704738B52E
:10F66000036A057D01330362C36905F00F052B446E
:10F67000C36190F82430044633B925B1204600F028
:10F6800017FA013DF9E738BD002380F8243038BD72
:10F690000378012B03D005D3022B06D0704704302A
:10F6A00000F00AB9043000F003BA0430D7E7027D55
:10F6B00062B190F8243053B9836902F00F029A1AAC
:10F6C000C36993428CBF0023012300E01346184610
:10F6D00070470378012B04D008D3022B0DD10430DE
:10F6E000E5E74068003018BF012070474368806834
:10F6F00083422CBF0020012070470020704700BFCC
:10F70000520606D5002B03DBFF2BA8BFFF2300E02A
:10F710000023012901D103707047022901D1038020
:10F720007047042901D103607047082903D11A46A4
:10F73000DB17C0E9002370474B688A6893423CBFDF
:10F740000A68D0544B6801334B6070470B68013333
:10F750000B60704718B3C38903F03F030F2B04D924
:10F76000C38903F03F03262B15D9C38903F0400357
:10F770009BB273B1C38903F03F030F2B07D9C08934
:10F7800000F03F0026288CBF0020012007E0002069
:10F7900005E0184603E00378FF2BE6D1012000F0D6
:10F7A0000100704710B5044648B1C38903F03F0318
:10F7B0000F2B04D9C38903F03F03262B01D9002066
:10F7C0000CE00378FF2B03D0064907F03AFD08B19F
:10F7D000012003E00449204607F033FD00F001005A
:10F7E00010BD00BF1451040007A3040070B51E4DE6
:10F7F0000446E38923F080031B041B0CE3812046AD
:10F8000010F0A6FC20B9204610F052FC70B916E0AA
:10F81000A389002BF7D0013B05EB0313DA8922F013
:10F8200080021204120CDA819B89F2E72489CCB1A0
:10F83000013C05EB0414E3891A06DAD470BD2046B6
:10F8400010F05FFC70B1084D23892E4653B1013B87
:10F850001C012819C3891B0601D5FFF7C7FF3444D3
:10F86000A388F3E770BD00BF2C2F002038B50546F4
:10F8700008462968E1B18C8804F0A4FD286850B1DD
:10F88000C389A3F500739BB2C381C38903F4F0530A
:10F890000BB910F07BFC4CB1064A631E02EB03135C
:10F8A000DA8902F5007292B2DA8100E023462B6019
:10F8B00038BD00BF2C2F002038B505460068C0B108
:10F8C000C3898488A3F500739BB2C381C38903F401
:10F8D000F0530BB910F05AFC4CB1064A631E02EB10
:10F8E0000313DA8902F5007292B2DA8100E023464E
:10F8F0002B6038BD2C2F00200B8943B1054A013BFA
:10F9000002EB0313DA8902F5007292B2DA81036026
:10F91000704700BF2C2F002070B5C36804460D4609
:10F92000002B77D0426812B1026801320260DA8996
:10F93000216802F03F02262A5DD9DA8902F03F02EF
:10F94000332A58D80C23994230D3272010F0EEFAEE
:10F950000646E06886B950B1C389A3F500739BB22F
:10F96000C381C38903F4F0530BB910F00FFC0023DB
:10F97000E3602361236070BD274BF31A1B11013331
:10F980008381E06850B1C389A3F500739BB2C38142
:10F99000C38903F4F0530BB910F0F8FBA268236895
:10F9A000E6601344A3600023266123602269236874
:10F9B000D5542368E1685A1C6260CA89C88902F07C
:10F9C0003F0220F03F000004192A4FEA104006D8F9
:10F9D000142A94BF03F1110203F1160203E0242A52
:10F9E00004D803F11B0240EA020301E02833034379
:10F9F0009BB2CB8170BDDA8902F03F020B2A07D996
:10FA0000DB8903F03F03192B8CBF0A2304239AE7F9
:10FA10000A2398E770BD00BF2C2F00202DE9F0418C
:10FA2000224E04463746E3689D89002D36D0013DBD
:10FA30002D0105EB0608B8F80E3003F500739BB2F4
:10FA4000A8F80E30E06850B1C389A3F500739BB2EB
:10FA5000C381C38903F4F0530BB910F097FBA2687C
:10FA60006368C4F80C8013447A19A360D38903F047
:10FA70003F03252B01D17B590EE0262B01D1938822
:10FA80000AE0192B04D8142B94BF103B153B03E05C
:10FA9000242B94BF1A3B273B6360C4E72361636850
:10FAA00003B1013B2360BDE8F08100BF2C2F002093
:10FAB000F8B503684268013393420446036050D3AB
:10FAC0009B1A0360C068002843D08589002D35D07B
:10FAD000244A013D2D01AF181646FB8903F500733A
:10FAE0009BB2FB81E06850B1C389A3F500739BB260
:10FAF000C381C38903F4F0530BB910F047FBA2682C
:10FB00006368E760134472192761A360D38903F027
:10FB10003F03252B02D1134B5B5921E0262B01D14A
:10FB200093881DE0192B04D8142B94BF103B153B70
:10FB300016E0242B94BF1A3B273B11E0C389A3F5A1
:10FB400000739BB2C381C38903F4F0530BB910F067
:10FB50001DFBA168626800230A44E3602361A26080
:10FB60006360F8BD2C2F0020F8B5047D05460F46D4
:10FB7000B4B104F00F040E46F31B9C420BD92B6961
:10FB80000BB12A689B5C06F8013B012CF4D0284697
:10FB9000FFF78EFFF0E7012C1CBF012385F824300E
:10FBA000F8BD13B5037D0446C3B16946FFF7DCFF1A
:10FBB000207D83060CD500F00F00042803D10098A7
:10FBC00024F042F90CE0082808D1DDE9000107E043
:10FBD0006946FFF7E2FA24F025F901E00020002150
:10FBE00002B010BD13B5037D0446DBB16946FFF7D3
:10FBF000BBFF207D830611D500F00F00042803D140
:10FC0000009824F021F906E0082802D1DDE900017E
:10FC100001E00020002124F01BFC04E06946FFF70E
:10FC2000BCFA00E0184602B010BD37B5037D0446AB
:10FC30003BB36946FFF798FF247D04F0200303F0EF
:10FC4000FF058BB104F00F04042C03D1009824F0BD
:10FC5000FBF806E0082C02D1DDE9000101E00020FC
:10FC6000002110F0EEF90DE069462046FFF795FA05
:10FC7000042C03D1294610F00AFA03E010F0F3F93E
:10FC800000E0184603B030BD4268036893423CBFB1
:10FC90000269D1547047037D03F00F03012B00D19B
:10FCA000F2E7704773B5054608462E7D76B3B30676
:10FCB00006F00F040FD506F09DFD042C02460B46FE
:10FCC00004D124F00DFC0090002618E0082CFBD194
:10FCD000CDE90023F8E706F02BFA32460346214629
:10FCE0006846FFF70DFDEFE71DF806102846FFF701
:10FCF000CBFF012C02D02846FFF7DAFE0136A642E0
:10FD0000F2D3012C1CBF012385F8243002B070BD52
:10FD100073B5027D05460B465AB3910602F00F04F7
:10FD200010D5184624F07EF8042C02460B4604D168
:10FD300024F0D6FB0090002614E0082CFBD1CDE97E
:10FD40000023F8E721466846FFF7DAFCF3E71DF8E1
:10FD500006102846FFF798FF012C02D02846FFF72F
:10FD6000A7FE0136A642F2D3012C1CBF012385F861
:10FD7000243002B070BDF0B50D460F46044606466D
:10FD80000FCD0FC4FA682B68236022B1D38903F525
:10FD900000739BB2D381F2603046F0BD2DE9F84389
:10FDA000CB8903F500739BB2CB810023C1608360D4
:10FDB000CB8903F03F03252B0446154601D10B6880
:10FDC0000EE0262B01D18B880AE0192B04D8142BC6
:10FDD00094BF103B153B03E0242B94BF1A3B273BF9
:10FDE00063602560CB8903F03F03252B04D10846CF
:10FDF00007F025F8206107E0CB8903F03F03262BAD
:10FE000006BF0B68236121612F4FB8462268002A84
:10FE100058D063689A4255D3D21A2260A268E0682B
:10FE20001344A3600028F1D08689002E36D0013E0D
:10FE3000360106EB0709B9F80E3003F500739BB2E3
:10FE4000A9F80E30E06850B1C389A3F500739BB2E6
:10FE5000C381C38903F4F0530BB910F097F908EB91
:10FE60000602C4F80C90C4F81090D38903F03F0345
:10FE7000252B02D158F806300EE0262B01D19388AD
:10FE80000AE0192B04D8142B94BF103B153B03E058
:10FE9000242B94BF1A3B273B6360B7E7C389A3F5C4
:10FEA00000739BB2C381C38903F4F0530BB910F004
:10FEB0006DF90023E360236163602368ED1AA56098
:10FEC000BDE8F883BDE8F8832C2F002070B5044608
:10FED000164622620B7903754A8803F00F035343D9
:10FEE00083610B88C361084606F0A3F8E269A36941
:10FEF000217D134401F00F01A361013301FB0622B0
:10FF00005B1A9A420546E2610ED350B1C389A3F54C
:10FF100000739BB2C381C38903F4F0530BB910F093
:10FF200035F90023237570BD01462046FFF736FFE3
:10FF30005DB1EB89A3F500739BB2EB81EB8903F410
:10FF4000F05313B9284610F021F9002384F8243027
:10FF500070BD2DE9F0430D468DB0164604460028CD
:10FF600074D0C38903F03F03072B04D9C38903F07E
:10FF70003F030F2B71D9E38903F03F03052B72D0A8
:10FF8000E38903F03F03012B6DD0E38903F03F03C6
:10FF90000F2B05D9E38903F03F03262B40F29A800B
:10FFA000E38903F03F03042B00F0B680E38903F0FC
:10FFB0003F03032B22D0E38903F03F03052B1DD021
:10FFC000E38903F03F03012B18D0E38903F03F03DB
:10FFD000062B13D0E38903F03F03072B0ED0E389F0
:10FFE00003F03F030F2B04D9E38903F03F03262BD3
:10FFF00004D9E38903F03F03042B27D1214601A84C
:020000022000DC
:10000000FFF73BFA012401A8FFF763FBD0B1CCB1A5
:1000100001A8FFF7D6F9324629460746FFF799FFB0
:1000200004465FB1FB89A3F500739BB2FB81FB899A
:1000300003F4F05313B9384610F0A8F801A8FFF7FD
:1000400027FBE0E701A8FFF7F1FA92E022464B49CF
:100050000320FEF7C7FD00248BE006F069F8314667
:10006000A847012485E000224549204604F0BEFD52
:10007000002207464349204604F0B8FD814667B197
:10008000B9F1000F09D0FB8903F03F03072B04D916
:10009000FB8903F03F030F2B0AD922463A4903207C
:1000A000FEF7A0FD01244946384610F0EAFC60E066
:1000B000384606F03DF88046B8F1000FF2DD3246D2
:1000C00029464846FFF745FF08F1FF380446002857
:1000D000F2D1E8E70022214601A8FFF75FFE019B6D
:1000E000029A934208D2059800B1C05C3146A847F5
:1000F00001A8FFF7DDFCF2E704980028B1D0C3891E
:10010000A3F500739BB2C381C38903F4F053002BA2
:10011000A7D110F03BF8A4E70022214601A8FFF781
:10012000D5FE9DF8183003F00F02012A13D1DB062B
:1001300011D401A8FFF7BBFA48B1059808B1019B9B
:10014000C05C3146A84701A8FFF789FAF1E701A88A
:10015000FFF7D4F985E701A8FFF7A9FA0028F6D040
:1001600001A8FFF73FFD3146A84701A8FFF777FA3E
:10017000F1E720460DB0BDE8F08300BF99520400BE
:10018000CA5204006D730400485204001FB50023D6
:10019000019103920449029301AAFFF7DAFE029843
:1001A00005B05DF804FB00BF39F7010007B502AAEE
:1001B000002342F8043D0349FFF7CBFE019803B04A
:1001C0005DF804FB4DF70100262A2DE9F8430546AA
:1001D0000C4616460FD07C2A0DD05E2A0BD0B2F505
:1001E000867F08D06FF4877802EB0803012B8CBF61
:1001F0000023012300E0012318464BB9A6F1250294
:100200000A2A06D840F22153D34003F0010300E04C
:1002100001236FF4837C06EB0C01072903D8952298
:10022000CA40D70703D426F002023C2A1AD155B19E
:10023000EA8902F03F02072A05D9EA8902F03F0263
:100240000F2A40F2F182002C00F08C83E28902F048
:100250003F02072A40F28A83E28902F03F020F2A16
:100260000FD983E3B5B96CB940F207139E4200F091
:10027000528140F209139E424FF0000000F0C88204
:10028000D0E20DB9B3B125E0EA8902F03F020F2AAE
:1002900000F20B83002B40F06D83EB8903F03F03EA
:1002A000072B40F24083EB8903F03F030F2B00F252
:1002B0003A837CB1E38903F03F03072B04D9E38938
:1002C00003F03F030F2B05D9E38903F03F03022B13
:1002D00040F0AC81002861D1002D00F02C81EB8929
:1002E00003F03F03082B28D0EB8903F03F030B2BCF
:1002F00023D0EB8903F03F030D2B1ED0EB8903F0D5
:100300003F030E2B19D0EB8903F03F030F2B14D0C2
:10031000EB8903F03F030B2B0FD0EB8903F03F0376
:100320000A2B0AD0EB8903F03F030F2B05D0EB8992
:1003300003F03F03022B40F0FE80002C00F0FB8016
:10034000E38903F03F03082B28D0E38903F03F0340
:100350000B2B23D0E38903F03F030D2B1ED0E38941
:1003600003F03F030E2B19D0E38903F03F030F2B5B
:1003700014D0E38903F03F030B2B0FD0E38903F084
:100380003F030A2B0AD0E38903F03F030F2B05D06C
:10039000E38903F03F03022B40F0CD80284605F0AF
:1003A000C7FE0746204605F0C3FE5E2E804664D099
:1003B0001EDC2B2E47D007DC262E5CD02A2E47D001
:1003C000252E40F0B6805AE02F2E47D008DC2D2E87
:1003D00040F0AF80F917B7EB080061EBE87139E046
:1003E0003C2E00F09A803E2E40F0A380874209E226
:1003F00040F20B139E4200F09580B6F5867F0CDA32
:1004000040F207139E424CD040F209139E4268D03E
:100410007C2E40F08E8038433FE0B6F5877F00F0B9
:10042000838006DCB6F5867F40F0838007FA00F013
:1004300033E040F20F139E422DD0B6F5887F78D17D
:1004400027FA00F029E0C117C01941EBE77101E07C
:1004500087FB0001BDE8F8430FF019BE384623F0D2
:10046000E1FC044640460D4623F0DCFC02460B4608
:1004700020462946A5E038400FE078400DE020B145
:1004800097FBF0F008FB107007E0AE490020BDE8D4
:10049000F8430FF0D6BD47FA00F0BDE8F8430FF07F
:1004A000E2BD87421BD12DB1ED8905F03F05AB1EA2
:1004B0005D425D4105F0010544B1E48904F03F046B
:1004C000A4F10209D9F1000444EB090404F0010489
:1004D000C5EB0408D8F1000040EB080098E10020CB
:1004E00096E1874217D145B1ED8905F03F05A5F1A9
:1004F000020CDCF1000545EB0C0544B1E38903F087
:100500003F03A3F1020EDEF1000444EB0E046C4045
:1005100004F001007CE101207AE18742ACBF0020B9
:10052000012075E1874269E18742B4BF00200120C4
:100530006EE1854971E1284606F05CF98046204667
:10054000894606F057F93C2E02460B4654D012DC81
:100550002B2E2CD008DC252E36D02A2E64D14046F6
:10056000494623F0C5FC92E72D2E25D02F2E5BD1D6
:100570004046494625E040F209118E4229D0B6F5A1
:10058000857F06DA3E2E45D040F207118E4220D0FC
:100590004AE040F20B118E4235D0B6F5877F43D149
:1005A000404649464FF0010423F028FF38E040461A
:1005B000494623F0EBFA6AE74046494623F0E4FA5D
:1005C00065E723F0BFFD62E7404649461CF02EFC7C
:1005D0005DE7404649464FF0010723F0F1FE00B9C0
:1005E0000746F8B2002D00F0B681EB8903F03F0317
:1005F000022B40F0B0819DE1404649464FF0010496
:1006000023F0E8FE0CE0404649464FF0010423F099
:10061000EBFE05E0404649464FF0010423F0F8FEAA
:1006200000B90446E0B2F3E04849F6E0D5B1EB8901
:1006300003F03F03032B2FD0EB8903F03F03052B7F
:100640002AD0EB8903F03F03012B25D0EB8903F07F
:100650003F03062B20D0EB8903F03F03072B1BD071
:10066000002C79D0E38903F03F03032B13D0E389F7
:1006700003F03F03052B0ED0E38903F03F03012B6A
:1006800009D0E38903F03F03062B04D0E38903F08C
:100690003F03072B60D135B1EB8903F03F03DF1E29
:1006A0007B427B4100E02B4603F0010234B1E38939
:1006B00003F03F03D91E4B424B4100E0234603F0B9
:1006C00001039A4248D140F207139E4203D040F200
:1006D00009139E4240D12A1B5042504125B1EB895B
:1006E00003F07F03462B05D09CB1E38903F07F0321
:1006F000462B0ED12A6823689A4209D1AA88A3887A
:100700009A4205D120892B891B1A5842584100E092
:10071000002040F207139E427AD040F209139E4215
:1007200002D180F0010073E04DB1E989084A094B1C
:1007300001F03F01032914BF194611466DE0054938
:100740006BE000BF0000F87F7F9F0400D0520400E0
:10075000015104009E5004000021284610F0D0F9F9
:1007600000210546204610F0CBF9074605B130B907
:100770002846394610F085F90020BDE8F8832B2E75
:100780000ED1284606F00EFC044610B1394606F09C
:10079000F7F92846394610F074F92046BDE8F88389
:1007A00000231A46014628461DF026FD3946044618
:1007B000284610F066F940F207139E4217D0B6F5AE
:1007C000847F05DA3C2E16D03E2E25D1002C19E070
:1007D00040F20B139E4210D0B6F5877F16D040F240
:1007E00009139E4218D1201C18BF012010E0B4FA52
:1007F00084F040090CE0E00F0AE0002CCCBF0020A0
:10080000012005E0D4BF0020012001E0E043C00F3B
:10081000BDE8F8430FF01FBC58493046BDE8F84327
:1008200003F0FCB8BDE8F883002C3FF433ADE28957
:1008300002F03F020F2A7FF609ADE28902F03F0283
:10084000262A3FF603ADEB8903F03F03082B29D09E
:10085000EB8903F03F030B2B24D0EB8903F03F031C
:100860000D2B1FD0EB8903F03F030E2B1AD0EB8921
:1008700003F03F030F2B15D0EB8903F03F030B2B45
:1008800010D0EB8903F03F030A2B0BD0EB8903F068
:100890003F030F2B06D0E88900F03F00811E48423D
:1008A000484188B1002120460CE0EA8902F03F026D
:1008B000262A3FF6EFACE38903F03F03082B06D16D
:1008C0000021284605F0DAFB00F0010002E5E3898B
:1008D00003F03F030B2BF3D0E38903F03F030D2B11
:1008E000EED0E38903F03F030E2BE9D0E38903F058
:1008F0003F030F2BE4D0E38903F03F030B2BDFD042
:10090000E38903F03F030A2BDAD0E38903F03F03C6
:100910000F2BD5D0E08900F03F00821E504250419D
:100920000028D1D0CCE7EB8903F03F03022B7FF402
:100930007EAEBEE42CB1E38903F03F03022B01D16C
:100940000CE0012040F207139E423FF461AF80F0BB
:100950000100C0B25CE7002CEDD1F3E7002D08BF29
:100960000120EFE7002D7FF495AC7DE4002D7FF4AE
:1009700091AC87E400283FF4B2AC0FE5D7A904009E
:1009800038B5054608460FF06EFB044698B10023C3
:100990001A460146284616F0D7FBE389A3F50073F3
:1009A0009BB2E381E38903F4F053054623B9204663
:1009B0000FF0ECFB00E038BD284638BD2DE9F347C9
:1009C0000F4690460146002800F0A380C38903F03B
:1009D0003F03052B0AD0C38903F03F03012B05D049
:1009E00001204E49FEF7FEF8002093E001A8FEF733
:1009F00083FF019E002E7CD0F38903F500739BB228
:100A00004FF00009F3813D464C46C84557DD296843
:100A1000304606F016FC00284DD0AB68002B49D0BC
:100A2000019C1CB1204605F050FE0446AB88033BF8
:100A3000172B32D8DFE803F00C310C0C31222A1AC4
:100A40001431313131313131313131313131310CD8
:100A5000E389AA6803F500739BB2E38114601DE08B
:100A60002046D5F808A01AF0ACFB04E02046D5F8E3
:100A700008A006F035FC8AF800000EE02046D5F804
:100A800008A005F055FBCAF8000006E02046D5F89E
:100A900008A005F0AFFECAE900015CB1E389A3F547
:100AA00000739BB2E381E38903F4F05313B920464A
:100AB0000FF06CFB012409F101090C35A5E72CB9F5
:100AC000324617490120FEF78DF800E00124F38932
:100AD000A3F500739BB2F381F38903F4F05313B9C8
:100AE00030460FF053FB01A8FEF7E6FE002C80D144
:100AF00000E00124019850B1C389A3F500739BB2B3
:100B0000C381C38903F4F0530BB90FF03FFB2046B8
:100B100000E0012002B0BDE8F08700BFD75204001A
:100B2000F9520400C8B1C38903F03F03062B11D06A
:100B3000C38903F03F03072B0CD0C38903F03F03A5
:100B4000052B09D0C389054803F03F03012B18BFCB
:100B5000002070470248704700487047A5F7010021
:100B600055F701002DE9F04F584B1A7885B098469B
:100B7000002A40F0A7800123554C88F80030591E08
:100B800009016018524EC28912F03F0F0ED0C2897F
:100B900092B242F08002C281C28902F03F02252A4D
:100BA00001BF62580F3203EB12139BB201339BB2A9
:100BB000B3F5FF6FE3D901256C1E24013019C389F9
:100BC000190605D5C38913F4F05F01D0FEF70EFEB8
:100BD0003319DA8902F03F02252A01BF32590F3258
:100BE00005EB12139DB26B1C9DB2B5F5FF6FE3D9F7
:100BF000384B00201880ADF804006F460124994658
:100C00008246621E4FEA021B06EB0B0505F10E0140
:100C1000EB8913F0800FEB8903F03F0336D0252BCF
:100C200018D156F80B20A1F800A00F321209BC8091
:100C3000114611F1FF310AD3531A23449BB2581EB7
:100C400006EB0010A0F80EA0AB800546F1E71444B7
:100C5000A4B218E028460FF02BFA78B12B896BB1BB
:100C60001B4A013B02EB0313D98989B231B1D989FF
:100C70000A065EBF598901F1FF31598106EB0B026B
:100C8000A2F80EA0BC802F4601200DE0252B06D136
:100C900056F80B300F3304EB1314A4B204E00B88A6
:100CA0009BB20BB9BC802F460134A4B2B4F5FF6FE0
:100CB000A7D90023BB80BDF80420A9F8002088F83C
:100CC000003000E0002005B0BDE8F08F7D2B002053
:100CD0002C2F00206E2B002038B528201DF046F860
:100CE00060B3174D174C2B8E03F05003F3B92368F4
:100CF000B3F90230292B19D00AF0EEFA50B1C389AA
:100D0000A3F500739BB2C381C38903F4F0530BB9FD
:100D10000FF03CFA0B4B1B68B3F90230292BE2D0E1
:100D20002C201DF023F80028DDD107E0044B1B8E9A
:100D300003F0500313B929201DF018F8002038BD26
:100D4000D42E0020D02E00202DE9F04105460E467D
:100D50001746FDF7CBFA044638B93146284604F069
:100D6000B2FE044608B9BDB925E0002F51D0204697
:100D700005F02CFD804630460FF0A0FD42460146AE
:100D80000746284603F05CFF4146044638460FF00C
:100D900078FE002C3DD1E6E7EB8903F03F03062BFC
:100DA00004D0EB8903F03F03072B04D11A493046E6
:100DB00023F04AFD78B11949304623F045FD08B1CA
:100DC000002426E0284604F0C2F90028F8D0BDE847
:100DD000F0411AF09FBC03F0EFFF2A460646104987
:100DE00003F0D8FE31460C4A284603F04FFF044674
:100DF0000146284606F0DCFD5EB1F389A3F50073D9
:100E00009BB2F381F38903F4F05313B930460FF02A
:100E1000BDF92046BDE8F0816D5604001451040070
:100E200007A30400F8B505460E4617460FF069F90A
:100E300038B93A4631462846FFF786FF044610BBCC
:100E400007E000223146284603F024FD0446D0B9CD
:100E5000EFE7C5B1EB8903F03F03062B04D0EB8924
:100E600003F03F03072B0ED11149304623F0ECFC71
:100E700048B903F0A1FF0E4A01460646284603F092
:100E800005FF04462EB920468FB9BDE8F84005F0AD
:100E90009DBCF389A3F500739BB2F381F38903F43E
:100EA000F053002BEFD130460FF070F9EBE7F8BDAF
:100EB0006D5604002DE9F74FDFF84CA2019105466D
:100EC0000024D346DAF80030B3F902302E2B40F07C
:100ED000B9801CF0E3FA894B1E8E06F03F06012E06
:100EE0005AD1DAF8007038461CF0E2F9002853D0E5
:100EF00038461CF005FA0746284605F0E6FB814611
:100F000028B948460FF0FDF8064638B91FE03246CA
:100F10003946FFF787FF0646F8B9F2E7DBF800002D
:100F20001CF0D8F9002201460746484603F088FE27
:100F3000064697B1FB89A3F500739BB2FB81FB8941
:100F400003F4F0534BB938460FF020F905E04B4657
:100F50003A466B490120FDF745FEDBF800001CF026
:100F60009DFA5CB1E389A3F500739BB2E381E38949
:100F700003F4F05313B920460FF008F9002D5ED0AA
:100F8000EB89A3F500739BB2EB81EB8903F4F0537B
:100F9000002B54D1284650E04FF480701CF0E6FE40
:100FA000002800F0A780A1462E4648E0534B1B8E38
:100FB00003F03F03012B40F0838040460FF038FFE1
:100FC0008046284605F081FB074600284DD138466B
:100FD0000FF097F8064600284DD0002241463846CB
:100FE00003F02EFE0646002C4ED1002F7DD0FB894B
:100FF00003F500739BB2FB81B946002D52D0EB89FB
:10100000A3F500739BB2EB81EB8903F4F05313B9A2
:1010100028460FF0BBF8002F44D1B8F1000F0ED0D6
:10102000B8F80E30A3F500739BB2A8F80E30B8F8EC
:101030000E3003F4F05313B940460FF0A7F84C46B6
:1010400035463FE75B2B3ED11CF028FA0AF044F905
:1010500005F0BCFB80465D201CF088FE0028A5D171
:10106000414620460FF00DFD44E041461DF00CFACC
:10107000064638B9ABE73B46424622490120FDF718
:10108000B1FDB0E7002CB2D0E389A3F500739BB2A9
:10109000E381E38903F4F053002BA6D120460FF03F
:1010A00075F8A2E7FB89A3F500739BB2FB81FB896E
:1010B00003F4F053002BB0D138460FF067F8ACE7DB
:1010C000A1462E46A9E7019B0BB11C6012E08CB132
:1010D000E389A3F500739BB2E381E38903F4F05342
:1010E00043B920460FF052F804E00DB9A94694E741
:1010F000B94684E7284603B0BDE8F08FD42E00201F
:101100000B53040052530400D02E00202DE9F0416F
:101110002C4D2B8E03F03F03012B064619D1AF6AED
:1011200007F1FF3805EB87070837B8F1000F4FF0DC
:101130000002314608DB57F8040D03F0ABFB044610
:1011400040B908F1FF38F0E7286803F0A3FB044634
:1011500000E000242B8E03F03F03012B2ED16CBB4B
:10116000304604F0BDF8314650B1204604F0ABFCE7
:10117000074688B9314604F0A6FC074660B91DE071
:1011800004F0A1FC0446C8B930460FF097FB214695
:10119000BDE8F0410FF058B932463946286803F0EF
:1011A00075FDFB89A3F500739BB2FB81FB8903F4FA
:1011B000F053044613B938460EF0E8FF2046BDE868
:1011C000F08100BFD42E00202DE9F04FB5B0994634
:1011D00002AFA64BB861188E396100F03F000128BC
:1011E0009346D7F8F050D7F8F480FB610CD1BB6977
:1011F00053B911B10A469E492BE03A699D49FDF762
:10120000F1FC386900F0B5BDFB691B8E03F03F03AC
:10121000012B07D0FB69188E00F03F00012840F039
:10122000648405E0FDF756FD0028F3D100F062BCB0
:10123000BB69002B00F05984DB8903F03F03062BC8
:101240000BD0BB69DB8903F03F03072B05D0BA69DC
:101250008949FDF7C7FC00F04DBCBBF1000F06D07B
:10126000BBF80E3003F500739BB2ABF80E30B9F14A
:10127000000F04D1BB69DB895C0607D404E1282098
:101280001CF074FD0028F5D100F034BCB96907F1F9
:101290004800FEF731FBBC6C24B1E38903F5007311
:1012A0009BB2E381AB004FF0000A7B615646002CF5
:1012B0004ED0E389580623D5E38903F03F030F2B73
:1012C0001ED9E38903F03F03262B40F29B8417E0ED
:1012D000E389A3F500739BB2E381E38903F4F05340
:1012E00013B920460EF052FF07F14800FEF7E4FA6A
:1012F000BC6C002C39D0E38903F500739BB2E38109
:101300005E49204605F09DFF0028E1D0BBF1000FAB
:101310000ED0BBF80E30A3F500739BB2ABF80E30C5
:10132000BBF80E3003F4F05313B958460EF02EFFFD
:10133000204605F0CAF9E389A3F500739BB2E38167
:10134000E38903F4F053834613B920460EF01EFFE1
:10135000B86C50B1C389A3F500739BB2C381C38934
:1013600003F4F0530BB90EF011FFB9F1000F40D0A8
:10137000DFF81091AC00CA46FB691B8E03F07003C6
:1013800083BBD9F80030B3F90230292B2AD04BB3F4
:10139000AE420ED80EB1B60000E01026B3000833FE
:1013A000ADEB030D02AB41462246184623F02AF965
:1013B000804609F091FF05F009FA48F80400DAF8D0
:1013C0000030B3F90230292B05F1010508D02C209B
:1013D0001CF0CCFC20B9414628460FF00FFB5AE028
:1013E0000434C9E729201CF0C1FC002800F08283E6
:1013F000AA46B8690FF006F8FA691C4BD46ABBF12B
:10140000000F07D0BBF80A200132ABF80A20C3F85E
:101410002CB00DE01A4A904205D164B162890132C4
:101420006281DC6207E01A68518901315181DA6218
:1014300008B900250DE0FB691B8E03F07003002B3B
:10144000F7D1BB695A46998800954346FDF7E2FCFF
:101450000546414650460FF0D1FAFB69DB6A13B1ED
:101460005A89013A5A81FB69DC622BE3D42E0020B1
:10147000CC530400E3530400F75304001C5404004D
:1014800065F50300D02E002006200EF04FFD786198
:10149000B8B91CF01FFFBBF1000F00F02B83BBF8A5
:1014A0000E30A3F500739BB2ABF80E30BBF80E30D4
:1014B00003F4F053002B40F01D8358460EF066FEF7
:1014C00018E3B96907F12400FEF716FA7E6A66B1DF
:1014D000F38903F500739BB2F381304605F0F5F80C
:1014E000F3895906044603D40DE0002634460AE089
:1014F000F38903F03F030F2B05D9F38903F03F0372
:10150000262B40F2CF83314620460FF0BAFAB9F1CC
:10151000000F00F0A580DFF8C484C146FB691C8E73
:1015200014F050046ED1D8F80020B2F90230292B03
:1015300068D07D6AB5B1EB8903F500739BB2EB818E
:10154000EB8903F040039BB273B1EB8903F03F03D7
:101550000F2B0AD9EC8904F03F04262C8CBF002401
:10156000012402E02C4600E01C46B2F90230292B8F
:1015700002D194B3002001E009F0AEFE05F026F997
:10158000064634B16FF000420121284605F0FCFA0E
:1015900002E01A200EF0CAFC8246002840F0AE821B
:1015A0001CF098FE5EB1F389A3F500739BB2F38142
:1015B000F38903F4F05313B930460EF0E7FDD9F880
:1015C0000030B3F90230292B01D145B913E02C20AA
:1015D0001CF0CCFB0028F8D18CE2002D9ED0EB89CA
:1015E000A3F500739BB2EB81EB8903F4F05313B9BD
:1015F00028460EF0CBFD002C90D007F12400FEF71A
:101600005BF98BE729201CF0B1FB002800F0728207
:101610000026B146B246354674E050460FF0A2F8B7
:1016200058F82910504603F09DF95146786904F0A6
:1016300025FEBAF80E30A3F500739BB2AAF80E305F
:10164000BAF80E3003F4F05313B950460EF09EFD75
:1016500009F1010976BB1CB107F12400FEF72CF952
:10166000A945D5DA7E6ADEB1F38903F500739BB232
:10167000F381F3895A0613D5F38903F03F030F2B47
:101680000ED9F48904F03F04262C8CBF00240124D9
:101690003CB16FF000420121304605F075FA03E0DD
:1016A00000241A200EF042FC82460028B5D11CF01E
:1016B00011FECDE7F389A3F500739BB2F381F389A3
:1016C00003F4F053002BC6D130460EF05FFDC2E7A5
:1016D000E38903F500739BB2E381E38903F03F03E1
:1016E0000F2B13D8E389A3F500739BB2E381E38941
:1016F00003F4F05313B920460EF048FD07F124001F
:10170000FEF7DAF87C6A002CE2D105E0E38903F009
:101710003F03262BE6D80EE2B9F1000F11D06FF08F
:1017200000422146484605F02FFAB9690EF08CFEBA
:1017300001460446786904F0A1FD494620460FF0B1
:10174000A0F9FB69A24A1B8E13F0700340F0998147
:10175000916AF96002F104084246F9688B4207DA9F
:1017600007F1280152F8040F41F823000133F4E790
:10177000002D36D0F969964A00238B62EB8903F07D
:101780003F03032B18D107F1480429462046FEF7F2
:10179000B3F8B86CC0B1FB69D3F8289009F1010225
:1017A0009A6204F092FF09F10203FA6942F82300F9
:1017B0002046FEF781F8ECE701239362EB8903F5FD
:1017C00000739BB2EB819560EB89A3F500739BB22C
:1017D000EB81EB8903F4F0532BB928460EF0D6FCCD
:1017E00001E0FB699D627869FDF7B6FA002800F018
:1017F0002081FA69764BD26ABA60BBF1000F10D033
:10180000BBF80A200132ABF80A20C3F82CB0BAF1B9
:10181000000F00F00381FB696D4A1B8E58040AD447
:1018200014E01A68518901315181DA62BAF1000F6E
:10183000F1D15546EEE03B692BB16648194619F0E7
:10184000DFF9002410E039696348F8E7138E03F4E8
:101850000053002B14BF0124002405D0138E23F461
:1018600000531B041B0C13865C4D2B687B60504699
:1018700007F148032B601CF013FBFB69A7F8AE606F
:101880001E8E1B8EF969524A23F4F16323F007037D
:101890009B049B0C43F001030B86BB69DB8903F0BF
:1018A0003F03072BB6B21CD1138E99040CD5138EAF
:1018B00003F03F03012B07D12A68D16853680B441A
:1018C000013BD3610BF072FD2B68B3F902303B2B67
:1018D0001BD07D2B19D009F051FF04F077FF05468E
:1018E00014E03F4A7869002103F0D0F9814609F0FD
:1018F00031FC484604F06AFF0546B9F1000F05D0F7
:101900000021484603F02EF800E0002530490B8EF8
:101910000A8E92B222F4CF6240F27F60304022F011
:10192000070202430A8623F4F1690A8E29F00709A7
:101930004FEAC94912F4604F4FEAD9490E460FD019
:10194000284819F0A7F91721284612F0A1FB0A2010
:1019500019F068F9328E130402D50BF027FD05E06B
:1019600024B1328E92B242F4005232861B4C1BF0EC
:1019700055FD7B682360B9F1000F4BD0328E706843
:10198000194992B249EA02031A22338603F02EF96A
:10199000064600283ED03B697BB1DB8903F03F035C
:1019A0000F2B0AD93B69114AD989114B01F03F012C
:1019B00026298CBF1946114600E00D493A69304688
:1019C00005F01EF92368ABB13046FDF780F815E04D
:1019D000D42E00203054040042540400D02E0020A5
:1019E0005A540400615404006051040097530400E9
:1019F000B3530400A349304605F002F9F389A3F577
:101A000000739BB2F381F38903F4F05313B93046AA
:101A10000EF0BCFB9C4BDB6A13B904E05B465546F9
:101A20005A89013A5A81984BBA68DA62FDF76EF921
:101A300000E00546954E0024A6F10409D9F82820B7
:101A400094420FDA56F8040F50B1C289A2F5007221
:101A500092B2C281C28902F4F0520AB90EF096FB2A
:101A60000134EBE70023FA68934207DA07F1280212
:101A700052F8232048F8042F0133F4E7824B9A628E
:101A800000E00025BAF1000F0ED0BAF80E30A3F531
:101A900000739BB2AAF80E30BAF80E3003F4F0537C
:101AA00013B950460EF072FB7B697A69DB89A3F5A6
:101AB00000739BB2D381D38903F4F05313B910465A
:101AC0000EF064FBBBF1000F16D0BBF80E30A3F58F
:101AD00000739BB2ABF80E30BBF80E3003F4F0533A
:101AE00053B958460EF052FB06E0B9F1000F01D091
:101AF000FFF7F2F800203CE128463AE150460EF0AC
:101B000031FE3146504602F02DFF5146786904F00F
:101B1000B5FBBAF80E30A3F500739BB2AAF80E30ED
:101B2000BAF80E3003F4F053002B7FF43BAD50466F
:101B30000EF02CFB36E55649204605F082FB20B11D
:101B4000204604F0C2FD0546CCE55249204605F08A
:101B500078FB20B1204604F0B8FD8246C2E54E492C
:101B6000204605F06EFB20B1204604F0AEFD814614
:101B7000B8E54A49204605F064FBB0B1BBF1000F5F
:101B80000ED0BBF80E30A3F500739BB2ABF80E304D
:101B9000BBF80E3003F4F05313B958460EF0F6FAC2
:101BA000204604F092FD83469CE53D49204605F021
:101BB00048FBB0B1204604F088FD064604F0B8FAB0
:101BC00080465EB1F389A3F500739BB2F381F3897C
:101BD00003F4F05313B930460EF0D8FA1FFA88F622
:101BE00080E5E3895B067FF57DADE38903F03F0384
:101BF0000F2B7FF677ADE38903F03F03262B40F2EE
:101C000082806FE5AE420ED80EB1B60000E010261D
:101C1000B3000833ADEB030D02AB41467A691846B9
:101C200022F0F0FC80467A696B1E42449A4504DC3F
:101C300052F8041D5160013BF8E7204604F045FDD1
:101C400048F82A00E389A3F500739BB2E381E38996
:101C500003F4F05301350AF1010A13B920460EF0DE
:101C600095FA07F14800FDF727FEBC6C24B1E38923
:101C700003F500739BB2E3817B6904337B61FFF75B
:101C800016BB00BF75540400D42E0020D82E0020AF
:101C90007D54040021540400265404001C54040004
:101CA0002B54040000283FF42EAC6FF000420121B9
:101CB000304604F069FF8246C8B10EF053FD21465C
:101CC000504602F04FFE5146786904F0D7FABAF850
:101CD0000E30A3F500739BB2AAF80E30BAF80E309E
:101CE00003F4F0532BB950460EF050FA01E01CF00B
:101CF000F1FA204631460EF0C4FE07F12400FDF74C
:101D0000DBFDFFF7E3BB6FF000420121204604F04A
:101D10003BFF804600283FF4E5AC0EF023FD204653
:101D200004F0D3FC014670B1404602F01BFE50B1F6
:101D3000C389A3F500739BB2C381C38903F4F05335
:101D40000BB90EF023FA4146786904F097FAB8F817
:101D50000E30A3F500739BB2A8F80E30B8F80E3021
:101D600003F4F053002B7FF4BDAC40460EF00EFAA6
:101D7000B8E4CC37BD46BDE8F08F2DE9F04F804682
:101D80008FB08A4639B1C3899BB223F03F0343F039
:101D90000703C3812BE07B201BF0E8FF002800F045
:101DA0001B82AE4C2068B0F9022040F203139A4225
