:020000040001F9
:10C00000E8EB00207DC5010085C5010087C5010062
:10C0100089C501008BC501008DC50100000000002D
:10C020000000000000000000000000008FC50100BB
:10C0300091C501000000000093C5010095C50100F5
:10C0400097C5010097C50100851D0300B9010300D4
:10C05000C901030097C50100CDC3020097C50100C7
:10C0600097C50100091B030097C5010097C5010092
:10C0700097C5010097C5010097C5010097C501004C
:10C08000ED1E030041FB020097C5010097C50100AA
:10C090003D020300410203005902030097C501005D
:10C0A00097C5010097C5010097C5010097C501001C
:10C0B00097C5010097C501000000000000000000C6
:10C0C00097C5010097C5010097C50100D90103007C
:10C0D00097C5010097C5010097C501000000000049
:10C0E0000000000000000000000000000000000050
:10C0F0000000000000000000000000000000000040
:10C10000000000000000000000000000000000002F
:10C11000000000000000000000000000000000001F
:10C40000DFF80CD00AF070FE00480047A9A4030032
:10C41000E8EB0020401E00BF00BF00BF00BF00BF10
:10C4200000BF00BF00BF00BF00BF00BF00BF00BF14
:10C4300000BF00BF00BF00BF00BF00BF00BF00BF04
:10C4400000BF00BF00BF00BF00BF00BF00BF00BFF4
:10C4500000BF00BF00BF00BF00BF00BF00BF00BFE4
:10C4600000BF00BF00BF00BF00BF00BF00BF00BFD4
:10C4700000BF00BF00BF00BF00BF00BF00BF00BFC4
:10C4800000BF00BF00BFC5D170470000401E00BF05
:10C4900000BF00BF00BF00BF00BF00BF00BF00BFA4
:10C4A00000BF00BF00BF00BF00BF00BF00BF00BF94
:10C4B00000BF00BF00BF00BF00BF00BF00BF00BF84
:10C4C00000BF00BF00BF00BF00BF00BF00BF00BF74
:10C4D00000BF00BF00BF00BF00BF00BF00BF00BF64
:10C4E00000BF00BF00BF00BF00BF00BF00BF00BF54
:10C4F00000BF00BF00BF00BF00BF00BF00BFC5D16D
:10C5000070470000401E00BF00BF00BF00BF00BF5B
:10C5100000BF00BF00BF00BF00BF00BF00BF00BF23
:10C5200000BF00BF00BF00BF00BF00BF00BF00BF13
:10C5300000BF00BF00BF00BF00BF00BF00BF00BF03
:10C5400000BF00BF00BF00BF00BF00BF00BF00BFF3
:10C5500000BF00BF00BF00BF00BF00BF00BF00BFE3
:10C5600000BF00BF00BF00BF00BF00BF00BF00BFD3
:10C5700000BF00BF00BFC5D170470000064880471C
:10C5800006480047FEE7FEE7FEE7FEE7FEE7FEE7B8
:10C59000FEE7FEE7FEE7FEE7FD18030001C4010029
:10C5A00070B5FE4C054622780AB900F00DF84FF43C
:10C5B000C0722946FA4803F0A9FCF949F94801F08C
:10C5C00061FF0120607070BD10B5F44C2078002828
:10C5D00018D19FEDF50AE06184ED080A411EA161C2
:10C5E000E060F04800F088FD01202070607818B10C
:10C5F000BDE81040EA48D3E7BDE81040E849E94803
:10C6000000F0C7BC10BD10B5E44C2078002805D060
:10C61000E44800F047FD00202070606010BD2DE967
:10C62000F04F04460025DD488A462DED048B81B08D
:10C63000A846456121780126AB4679B1012904D08D
:10C64000042202254261022907D8E17A09060DD4A5
:10C650004169032541F0080141619CE002214161EB
:10C66000012001B0BDEC048BBDE8F08F617919B9F0
:10C67000A17909B9E179D1B1DAF800204FF0474347
:10C680009A420ED8C9498A420BDCDAF804209A4251
:10C6900007D88A4205DCDAF808209A4201D88A4293
:10C6A0000BDD4169082541F48071416173E0416906
:10C6B000042541F0100141616DE081464068042885
:10C6C0004BD0FFF781FF20790102E0780843010297
:10C6D000A078084301026078084300EE100A607AEF
:10C6E000B8EE409A00EE100AA07A0090B8EE408AA8
:10C6F000B5EEC08AF1EE10FA56D0D9F81C10A84851
:10C70000491CC9F81C1099ED080A70EE088AC9ED99
:10C71000088AB0F900708F4246D138460AF0F1FA23
:10C7200041EC110B53EC112B9FEDA10B51EC100BB5
:10C730000AF078FA0AF076FB00EE107A00EE900A22
:10C740004F46B8EEC00A88EE801AF4EEC10AF1EE48
:10C7500010FA0ADD70EEC18A09E0D9F81410052537
:10C7600041F01001C9F8141015E071EE608A10EE66
:10C77000900A0AF01CFB9FED900B53EC102B0AF073
:10C78000DFF90AF04FFB00EE900AF4EEE08AF1EEDA
:10C7900010FA03DD0725FFF736FF64E09FED820AFC
:10C7A000C7F81CB087ED080A7D4800880A283AD1EE
:10C7B000B6EE000A022628EE008A34E000272CE0BC
:10C7C000F0EE480A5146B0EE490A7648009A01F068
:10C7D0009FFA014601F1100301229A40C9F80410A2
:10C7E000D9F8143048461A43C9F81420012912DB3D
:10C7F000826882B1724991ED420AC16802EB8102FE
:10C80000B1EE400A82ED000A491CC1600269914202
:10C8100001DBC9F80CB07F1CFFB2B742D0D308F1DE
:10C82000010000F0FF0821784145C7D8D9F8181059
:10C8300048464A1C10D0491CC9B28161227A8A42FA
:10C8400005D082614169062541F04001416141699D
:10C850000A04120C03D006E0217A8161F7E741F067
:10C860000101C9F814102846FBE6554991ED400A2C
:10C8700080ED000A704710B504464848007808B9B2
:10C88000FFF7A2FE4F4890F8C80500280BD04C488F
:10C890004D49D0F8BC012060884203DD9FED4B0A72
:10C8A00084ED000A012010BDFEB514460D46024677
:10C8B0000023694602EB4306B07B767B06EB002043
:10C8C00000B200EE100A01EB83005B1CB8EEC00A58
:10C8D000032B80ED000AEDDB1046FFF7A0FE2F4B87
:10C8E0003849586982B25A6191F86B67012E05D1B7
:10C8F00042F400325A61002281F86B27000303D50D
:10C90000586940F4803058612D485E6990ED400AC6
:10C91000284684ED000AFFF7AEFF94ED000AB5EE5D
:10C92000C00AF1EE10FA03D19FED1F0A85ED000A4F
:10C930003046FEBD40F2D4407047224890F855057D
:10C940007047204890F854057047144A1161906070
:10C950007047704710B504460A280BD0142C09D034
:10C96000282C07D0642C05D0A02C03D0C82C01D0D3
:10C97000002010BD0948007808B9FFF725FE0848D7
:10C98000B0F90010A14207D021B20A2C20D00180BA
:10C9900001800348FFF704FE012010BD342400206D
:10C9A00018A100205C7600200000000000FEFF4679
:10C9B0000000000000408F409A9999999999C93FC9
:10C9C0005C9A00205C9600200000C8420000C8422B
:10C9D00014220280DCE710B502004FF000009FED4A
:10C9E000F91AF949DFEDF90A1AD0012A1FED090AEF
:10C9F00027D09FEDF71A022A37D0032A4AD181EDBA
:10CA0000021A81ED030AF1EE040AC1ED040A81ED78
:10CA1000050AB3EE090A81ED120A40F226201EE053
:10CA200081ED021A9FEDEB0A81ED030A9FEDEA1AF0
:10CA300041F2301081ED041A81ED050AC1ED120AB0
:10CA40000DE0C1ED020A81ED031AF3EE0E0AC1ED0D
:10CA5000040A81ED051A81ED120A40F69800A1F84A
:10CA60004E00DE48007878B110E081ED020AC1ED99
:10CA7000030AB2EE020A81ED040AC1ED050A81ED56
:10CA8000121A40F24C40EAE7FFF79EFDCE48FFF74E
:10CA900087FD012010BD00EE100ACB4810B5B8EE9E
:10CAA000C00A002480ED020A00EE101AB8EEC00A97
:10CAB00080ED030AFFF774FD204610BD10B5C7488E
:10CAC0002DED028BB0EE408A007808B9FFF77CFDAF
:10CAD000BD4880ED078AFFF763FD0120BDEC028BA6
:10CAE00010BD70B50546BD480C46007808B9FFF783
:10CAF0006BFDB5488584C484FFF752FD012070BDED
:10CB0000B14981F8280008464AE5AF4981F8290073
:10CB1000084645E5AC4981F82A00084640E5AA499F
:10CB200081F82B0008463BE5A74981F82C00084610
:10CB300036E5AB4801F01CBAA94801F01EBAA94875
:10CB400001F020BFA74801F01EBFA44A10B512781B
:10CB500004460AB9FFF738FD2146A14801F092FCCE
:10CB6000012010BD9D4910B50978044609B9FFF7A9
:10CB70002BFD9B49204601F005FA012010BD974A84
:10CB800010B5127804460AB9FFF71EFD21469448F5
:10CB900001F030FD012010BD904910B50978044620
:10CBA00009B9FFF711FD8E49204601F052FA012024
:10CBB00010BD8A4A10B5127804460AB9FFF704FD81
:10CBC0002146874801F0FDFC012010BD834910B5C6
:10CBD0000978044609B9FFF7F7FC8149204601F0BE
:10CBE000A9FA012010BD7D4A10B5127804460AB991
:10CBF000FFF7EAFC21467A4801F06DFD012010BDE7
:10CC0000764910B50978044609B9FFF7DDFC744987
:10CC1000204601F0A8FA012010BD704A10B5127824
:10CC200004460AB9FFF7D0FC21466D4801F06EFDBD
:10CC3000012010BD694910B50978044609B9FFF70C
:10CC4000C3FC6749204601F0A9FA012010BD634AE0
:10CC500010B5127804460AB9FFF7B6FC21466048C1
:10CC600001F06FFD012010BD5C4910B50978044644
:10CC700009B9FFF7A9FC5A49204601F0AAFA012098
:10CC800010BD564A10B5127804460AB9FFF79CFC4D
:10CC90002146534801F080FD012010BD4F4910B5D9
:10CCA0000978044609B9FFF78FFC4D49204601F089
:10CCB000BBFA012010BD494A10B5127804460AB9E2
:10CCC000FFF782FC2146464801F075FD012010BDAA
:10CCD000424910B50978044609B9FFF775FC404987
:10CCE000204601F0B0FA012010BD10B53B482DEDF3
:10CCF000028BB0EE408A007808B9FFF765FCB0EE11
:10CD0000480A374801F072FD0120E7E610B50446F5
:10CD10003248007808B9FFF757FC314801F0AEFA05
:10CD200084ED000A012010BD2C4A10B5127804468B
:10CD30000AB9FFF749FC2146294801F05CFD0120B2
:10CD400010BD264910B50978044609B9FFF73CFC27
:10CD50002349204601F097FA012010BD1F4A10B563
:10CD6000127804460AB9FFF72FFC21461C4801F04F
:10CD700060FD012010BD194910B50978044609B9B4
:10CD8000FFF722FC1649204601F09BFA012010BD56
:10CD9000124A10B5127804460AB9FFF715FC21466D
:10CDA0000F4801F059FD012010BD0C4910B509785C
:10CDB000044609B9FFF708FC0949204601F094FA36
:10CDC000012010BD0000C84318A100200000484306
:10CDD0000000484200004844000070423424002013
:10CDE0005C76002098A20020AB4A10B51278044669
:10CDF0000AB9FFF7E9FB2146A84801F03CFD0120F4
:10CE0000DFE7A54910B50978044609B9FFF7DCFB4F
:10CE1000A249204601F077FA0120D2E79E4A10B5D8
:10CE2000127804460AB9FFF7CFFB21469B4801F070
:10CE300030FD0120C5E7984910B50978044609B9C5
:10CE4000FFF7C2FB9549204601F06BFA0120B8E7D5
:10CE5000914A10B5127804460AB9FFF7B5FB21468E
:10CE60008E4801F020FD0120ABE78B4910B5097811
:10CE7000044609B9FFF7A8FB8849204601F05BFA90
:10CE800001209EE710B504468348007808B9FFF7F3
:10CE90009BFB834890F8900800EE100A0120B8EE42
:10CEA000400A84ED000A8CE77B4910B509780446F6
:10CEB00009B9FFF789FB7949204601F060FA0120A2
:10CEC0007FE7754A10B5127804460AB9FFF77CFB74
:10CED0002146724801F004FD012072E76E4910B549
:10CEE0000978044609B9FFF76FFB6C49204601F049
:10CEF0004DFA012065E7684A10B5127804460AB970
:10CF0000FFF762FB2146654801F0F4FC012058E779
:10CF1000614910B50978044609B9FFF755FB5F4927
:10CF2000204601F03AFA01204BE75B4A10B512782F
:10CF300004460AB9FFF748FB2146584801F0E1FCD6
:10CF400001203EE7544A10B5127804460AB9FFF7AB
:10CF50003BFB2146514801F0DBFC012031E74E4903
:10CF600010B50978044609B9FFF72EFB4B49204656
:10CF700001F01AFA012024E7474910B50978044660
:10CF800009B9FFF721FB4549204601F046FA012087
:10CF900017E770B5054600F500500C46B0F844158B
:10CFA000218005F51051142291ED520A84ED010AF9
:10CFB00091ED530A84ED020A91ED540A84ED030ABF
:10CFC00091ED2D0A84ED040A91ED310A84ED050AF4
:10CFD000B7EE000A84ED060A91ED700A84ED070AA7
:10CFE00091ED400A84ED080AB0F84817A184B0F822
:10CFF0004A17E18490F8521784F8281090F85317D4
:10D0000084F8291090F8541784F82A1090F86C17B7
:10D0100084F82B1090F8C01784F82C1090F817198A
:10D0200084F82D1005F5205191ED130A84ED0C0ABA
:10D0300090F8500884F8340042F61810291804F1CA
:10D04000A80002F063FF42F62C1029186C2204F1AC
:10D05000BC0002F05BFF42F698102918182204F574
:10D06000947002F053FF42F6B0102918242204F500
:10D07000A07002F04BFF05F526501422D0E91510E0
:10D08000C4E9591042F6DC10291804F5B670BDE861
:10D09000704002F03BBF0000342400205C7600208A
:10D0A0005C96002010B5044600F50050002180F881
:10D0B000541580F855159FED0F0A04F5105080EDBA
:10D0C000400A42F6C800204402F0C8FD42F6D400EF
:10D0D000204402F0C3FD42F6E000204402F0BEFD11
:10D0E00042F65820204402F0C0FFBDE8104002F094
:10D0F00076BD0000000000002DE9F05F05462DED33
:10D10000088B9FEDFE9A02F067FD412028805F208A
:10D110006880A8807D20E8803220288141206881B5
:10D120000F20A8811D20E8811E2028820820688207
:10D130000F20A8820C20E88214202883082068830E
:10D140001120A883E883062028846884A8842321EA
:10D15000E9840921298507216985F0EE009AC5ED4A
:10D160000E9A9FEDE70AF6EE008A85ED0F0AC5EDEF
:10D17000108A9FEDE40A85ED110A9FEDE3AAB5EE52
:10D18000000A85ED12AA85ED130A9FEDE00A03223D
:10D1900085ED140AEA85A985298668864FF00A0874
:10D1A000A5F834804FF04609A5F83690DFEDD8AAEF
:10D1B00005F5DC70C5ED15AA01F009FF05F51A703B
:10D1C00001F058FD05F5467001F06EFC05F568703C
:10D1D00001F06AFC05F5856001F066FC05F59660D6
:10D1E00001F008FE41F6BC00284401F027FF41F69B
:10D1F0009C40284401F022FF05F500544FF4807054
:10D2000024F87C0F1820E0805A20A080F020608055
:10D210009FEDC08A9FEDC00A05F5105787ED140AEF
:10D220009FEDBEBA42F21C5087ED15BA284401F0BA
:10D2300017FF42F23850284401F027FF002084F8FD
:10D24000E0030121A4F82814A4F82A04C4F8240453
:10D25000A4F82C0484F8E30384F8E203A4F82E0471
:10D26000A4F8300495ED130A87ED340AB5F92810B7
:10D2700000EE101AF8EEC00A9FEDA90A20EE801AFF
:10D28000C1EE080A70EEA80AFDEEE00A10EE901A50
:10D29000A4F81814D5ED120AC7ED310A698DA4F867
:10D2A0001214B5F9001000EE901AF8EEE00A20EE24
:10D2B000801AC1EE080A70EEA80AFDEEE00A10EE30
:10D2C000901AA4F8EA13B5F9021000EE901AF8EEDD
:10D2D000E00A20EE801AC1EE080A70EEA80AFDEE00
:10D2E000E00A10EE901AA4F8EC13B5F9041000EE61
:10D2F000901AF8EEE00A20EE801AC1EE080A70EEED
:10D30000A80AFDEEE00A10EE901AA4F8EE13B5F9A3
:10D31000061000EE901AF8EEE00A20EE801AC1EE38
:10D32000080A70EEA80AFDEEE00A10EE901AA4F8C2
:10D33000F013B5F9081000EE901AF8EEE00A20EEAE
:10D34000801AC1EE080A70EEA80AFDEEE00A10EE9F
:10D35000901AA4F8F213B5F90A1000EE901AF8EE3C
:10D36000E00A20EE801AC1EE080A70EEA80AFDEE6F
:10D37000E00A10EE901AA4F8F413B5F90C1000EEC0
:10D38000901AF8EEE00A20EE801AC1EE080A70EE5C
:10D39000A80AFDEEE00A10EE901AA4F8F613B5F90B
:10D3A0000E1000EE901AF8EEE00A20EE801AC1EEA0
:10D3B000080A70EEA80AFDEEE00A10EE901AA4F832
:10D3C000F813B5F9101000EE901AF8EEE00A20EE0E
:10D3D000801AC1EE080A70EEA80AFDEEE00A10EE0F
:10D3E000901AA4F8FA13B5F9121000EE901AF8EE9C
:10D3F000E00A20EE801AC1EE080A70EEA80AFDEEDF
:10D40000E00A10EE901AA4F8FC13B5F9141000EE1F
:10D41000901AF8EEE00A20EE801AC1EE080A70EECB
:10D42000A80AFDEEE00A10EE901AA4F8FE13B5F972
:10D43000161000EE901AF8EEE00A20EE801AC1EE07
:10D44000080A70EEA80AFDEEE00A10EE901AA4F8A1
:10D450000014B5F9181000EE901AF8EEE00A20EE6C
:10D46000801AC1EE080A70EEA80AFDEEE00A10EE7E
:10D47000901AA4F80214B5F91A1000EE901AF8EEFA
:10D48000E00A20EE801AC1EE080A70EEA80AFDEE4E
:10D49000E00A10EE901AA4F80414B5F91C1000EE7E
:10D4A000901AF8EEE00A20EE801AC1EE080A70EE3B
:10D4B000A80AFDEEE00A10EE901AA4F80614B5F9D9
:10D4C0001E1000EE901AF8EEE00A20EE801AC1EE6F
:10D4D000080A70EEA80AFDEEE00A10EE901AA4F811
:10D4E0000814B5F9201000EE901AF8EEE00A20EECC
:10D4F000801AC1EE080A70EEA80A13E0CDCCAC3F4A
:10D50000000070420000F04300004844713D8A3F33
:10D51000000048420000964400009640CDCC4C3DAF
:10D5200000008044FDEEE00A042210EE901AA4F8F8
:10D530000A14B5F9221000EE901AF8EEE00A20EE77
:10D54000801AC1EE080A70EEA80AFDEEE00A10EE9D
:10D55000901AA4F80C14B5F9241000EE901AF8EE05
:10D56000E00A20EE801AC1EE080A70EEA80AFDEE6D
:10D57000E00A10EE901AA4F80E14B5F9261000EE89
:10D58000901AF8EEE00A20EE801AC1EE080A70EE5A
:10D59000A80AFDEEE00A10EE901AA4F81014B5F9EE
:10D5A0002C1000EE901AF8EEE00A20EE801AC1EE80
:10D5B000080A70EEA80AFDEEE00A10EE901AA4F830
:10D5C0001414B5F9301000EE901AF8EEE00A20EECF
:10D5D000801AC1EE080A70EEA80AFDEEE00A10EE0D
:10D5E000901AA4F81A14A4F81C242221A4F82014D8
:10D5F000B5F9361000EE901AF8EEE00A20EE800A37
:10D60000C0EE080A30EEA80ABDEEC00A10EE101AED
:10D61000A4F8681495ED0E0A87ED2C0A95ED0F0A13
:10D6200087ED2D0A95ED100A87ED2E0A95ED110A6A
:10D6300087ED2F0AB7EE000A87ED300AA4F816042A
:10D6400084F8E10395ED140A87ED350AE88DA4F816
:10D650005C04688EA4F85E04A88EA4F8600495EDBE
:10D66000150A87ED3E0A9FEDFE0A002087ED6B0A42
:10D670009FEDFC8AB4F17C0405EB800101F51051AB
:10D68000401C00B281ED448A0328F5DB0020A4F899
:10D69000DE04A4F8E004A4F8E204A4F89A04A4F8D0
:10D6A000E604C4F8E804C4F8EC0487ED3C8AC7ED4E
:10D6B0003DAA012141F2385384F860142B44C4F888
:10D6C000C83441F288532B444FF0140BC4F8CC34C7
:10D6D000A4F844B59FEDE40A87ED520A9FEDE30AF2
:10D6E00087ED530A87ED54AA84F8540584F855054C
:10D6F00087ED588A87ED598A87ED5A8A87ED5B8ACC
:10D7000087ED5C8A84F87C05A4F87E05A4F8802562
:10D7100087ED648A87ED638A87ED618A87ED6D8A7C
:10D7200087ED6F8A84F8C8059FEDD10A022287ED44
:10D73000700A84F8C91584F8CA05A4F84827042299
:10D74000A4F84A2784F84C0784F84D0784F8520758
:10D7500084F84E07A4F8500784F8CB05A4F8E40534
:10D76000A4F8E605A4F8E805A4F8EA0584F8EC05B1
:10D77000A4F8EE0584F8F00587ED7E8A87EDCD8A62
:10D78000A4F83C0784F8531784F8541784F8550715
:10D7900087EDD78A84F8560784F85707A4F8580706
:10D7A000A4F85A07A4F8600787EDD98AA4F8680797
:10D7B00084F86A0784F86B0784F86C07A4F890076C
:10D7C000A4F8920784F8940784F8BC0784F8BD078E
:10D7D00084F8BE0784F8BF0784F8C017A4F8EC07E4
:10D7E000A4F8EE07A4F8F00784F8F2079FEDA10A69
:10D7F00005F5205686ED050A9FED9E0AC82286EDA6
:10D80000060AA4F82408A4F890291422A4F892295E
:10D8100084F8261884F82718C82284F828281422A7
:10D8200084F8292886ED0B8A84F83008A4F8320899
:10D83000A4F8340886ED0E8A84F83C0884F83D0884
:10D8400084F83F0884F83E08A4F80E08A4F81008ED
:10D85000A4F8120886ED088AC4F81C0884F8400869
:10D8600084F8410884F8420884F8430884F844089E
:10D8700084F8450884F8460887EDFA8A84F8480851
:10D880009FED7D0A042286ED130A84F8501884F86F
:10D890005118B1EE0A0A86ED150A84F8581884F872
:10D8A000592886ED198A86ED1A8AA4F86C08A4F81E
:10D8B0006E0886ED1C8A86ED1D8AA4F87808A4F807
:10D8C0007A0884F87C184FF0320AA4F87EA89FEDFD
:10D8D000640A4FF05F0E86ED200AA4F884E841F256
:10D8E0003012A4F886280F2284F8172984F82C997E
:10D8F00086ED4C9A0522CC4684F834299FED5F0AC8
:10D900000F2386ED4E0A86ED4F9A84F840399FED3D
:10D910005B0A86ED510A84F8489986ED539A84F89B
:10D9200050299FED560A86ED550A86ED569A84F8E1
:10D930005C299FED520A86ED580A86ED599A84F8C3
:10D9400068299FED4E0A86ED5B0A86ED5C9A84F8A5
:10D9500074399FED4A0A86ED5E0A9FED480A86ED0E
:10D960005F0A9FED460A86ED600A84F88419DFEDB0
:10D97000440A9FED420A0A2386ED620AC6ED468AF2
:10D9800084F81C39142384F81D399FED3E0A86ED76
:10D9900048BA86ED490A9FED3C0A552386ED4A0AAE
:10D9A0009FED3A0A84F8983986ED670A86ED680A91
:10D9B00086ED690A86ED6A0A4FF01E0984F8AC9973
:10D9C00084F8B0E9C6ED6D0A86ED6E0A9FED290A6E
:10D9D00086ED6F0A9FED270A86ED700A9FED2C0AEF
:10D9E00084F8C49986ED720A9FED2A0A142386ED05
:10D9F000730A84F8D03984F8D13984F8D429032300
:10DA000084F8D5394FF07D08A4F8D689A4F8D889D0
:10DA10004FF00A0884F8DA899FED1F0A4FF05A0880
:10DA200086ED770AB7EE040A86ED780A84F8E429D1
:10DA300084F8E589C6ED7A9AB7EE000A86ED7B0A8E
:10DA400084F85E084FF0C30884F85F884FF014082C
:10DA500084F8608884F861184FF06E081EE00000BA
:10DA600000004843000000000080BB440000C843A1
:10DA7000000020423333533FCDCC4C3F6666263FF7
:10DA8000CDCC8C3F0AD7A33C0AD7233C6666663FC1
:10DA90009A99193F8661983F9A99593F84F862880C
:10DAA000C4F8A405C4F8A80584F8880884F889187F
:10DAB00084F8F00984F8F3094FF0060884F8F18936
:10DAC00084F8F23984F8F40984F8F70984F8F53910
:10DAD00084F8F639A4F88C0884F88E1884F88F0836
:10DAE00084F8900884F8910884F892084FF04B0865
:10DAF000A4F8FC894FF49668A4F8FE89A4F8009A6B
:10DB00004FF44878A4F8028A84F8F81984F8FB09DD
:10DB100084F8F92984F8FA2984F8930884F8940899
:10DB20007822A4F8042A072284F8062A94F8862486
:10DB3000520084F8952884F8081A84F809CAA4F8D1
:10DB4000960884F8981884F8991884F89A1884F834
:10DB50000A3AA4F80CAA84F89B0884F89C180422BA
:10DB600084F89D289FED690A86ED280A84F8A41898
:10DB700084F8A50842F6C8000321284404F59564FA
:10DB800002F04BF842F6D4000921284402F045F88F
:10DB900042F6E0000521284402F03FF886ED2A8A8B
:10DBA00086ED2B8A86ED2C8A86ED2D8A86ED2E8ACF
:10DBB00086ED2F8A86ED308A86ED318A86ED848A5D
:10DBC00086ED858A86ED868A86ED878A642084F8CC
:10DBD000EC0400200146A4F5956400BF05EB40026B
:10DBE00002F50052A2F8EC182A1802F50052401C67
:10DBF00000B282F8FF180328F0DBA4F8F218A4F8AA
:10DC0000F41886ED3E8AA4F8FC1884F8FE18C4F8CF
:10DC10005CB5C4F8581586ED888AC4F89815C4F820
:10DC20009C15C4F8A01587ED408AA4F8241A86ED47
:10DC30008A8A884686ED8C8A86ED8B8A84F8348AB7
:10DC400084F8358A84F8CC8584F88A8884F8378A01
:10DC500084F8388A84F8398A84F83A8A42F6582057
:10DC600084F8548A0021284402F0F2F984F8A68A44
:10DC700084F8A78A84F8CD85A4F8648400224046FD
:10DC800005EB420101F50051521CA1F8FC0712B24C
:10DC9000A1F80208032AF3DBA4F8140984F8160992
:10DCA000012184F8AA1A84F8AB1A84F8AC1A84F813
:10DCB000AD0A84F8AE0A84F804195F2284F80529B5
:10DCC00084F8AF0A84F8B00A86EDAD8A84F8B81AF1
:10DCD00084F8B90A87ED418A87EDCE8AA4F86204F8
:10DCE000A4F8C8075FF0000105EB410202F50052FD
:10DCF000491C09B2A2F8CA070329F5DBA4F8F80702
:10DD0000A4F8FA07BDEC088BBDE8F09FCDCC4C3EE3
:10DD10002DE9F05F00F500542DED028B8046B4F83C
:10DD2000A804B0EE408A401CA4F8A8040E4684F86B
:10DD3000342AB0EE600A404601F0A8FE4FF0000A17
:10DD400008F5105584F85DA495ED580A70EE082A80
:10DD5000C5ED582A96EC020A30EE200AD6ED020AEA
:10DD600030EE200AD5ED590A30EE202A85ED592AE9
:10DD700095ED5A0AD6ED000A70EE201AC5ED5A1A32
:10DD800095ED5B0AD6ED010A30EE201A85ED5B1A9F
:10DD900095ED5C0AD6ED020A70EE200AC5ED5C0A2C
:10DDA000D4F8A805401CC4F8A805B4F8A814B4F821
:10DDB000A404814278D100EE100AB8EE403A82EE17
:10DDC000830A02EE900AF8EE622A82EE223A02EE0E
:10DDD000100A85ED580AB8EE422AC1EE822A01EEF9
:10DDE000900A85ED593AF8EE611A81EE212A01EE8A
:10DDF000100AC5ED5A2A4046B8EE411AC0EE811A03
:10DE000085ED5B2AC5ED5C1A01F0ACFE85ED580A84
:10DE100094F85C04012150B14FF00409012809D0A5
:10DE200002280ED005280CD0042877D07BE084F897
:10DE30005C1478E0D4F85815D4F8A004884272D362
:10DE400064E0B4F8A604D4F85C1588426BD2D4F828
:10DE5000C81401EB800080ED000AB4F8A614D4F8D1
:10DE6000CC04D5ED590A00EB8100C0ED000AB4F8EE
:10DE7000A604D4F8C81401EB800090ED000A4046D7
:10DE800001F014F9B4F8A604401C80B2A4F8A6046A
:10DE9000D4F85C1588423DD10127F8074FF0000601
:10DEA00015D06FF0030B29E050E000BFD4F8CC048C
:10DEB00000EB8600D0ED000AD4F8C80400EB860021
:10DEC00090ED000A404601F0F1F8761C36B2D4F825
:10DED0005C05B042EADC15E0821BD4F8CC140BEBF5
:10DEE00082000144D1ED000AD4F8C814084490ED32
:10DEF000000A404601F0DAF8761C36B2D4F85C0528
:10DF0000B042E9DC7F1C3FB2052FC6DB84F85C948D
:10DF100009E003E0022084F85C0404E0D5ED590A2E
:10DF2000404601F0C3F89FED0C0AA4F8A8A485EDC3
:10DF3000580A85ED590A85ED5A0A85ED5B0A85ED8B
:10DF40005C0AD4F8A004401CC4F8A00494F85D0452
:10DF5000BDEC028BBDE8F09F0000000000F5005012
:10DF600090F85405704700F5005090F8550570473B
:10DF700000F5005090F8BD07704700F5005090F88C
:10DF8000BE07704701F50052B2F8443520F8243B33
:10DF900001F5105301F5205193ED520A00ED080AE6
:10DFA00093ED700A00ED020AB2F848370380B2F828
:10DFB0004A37438092F85237037192F853374371CE
:10DFC00092F85437837192F86C37C37192F85237D4
:10DFD000C37192F8C037037292F81739437291ED0A
:10DFE000130A80ED030A92F85038037492F8263829
:10DFF000437492F82738837492F85138C37491EDC2
:10E00000150A80ED050A92F85818017692F8591809
:10E01000417692F85E18817692F85F18C17692F890
:10E020006018017792F86118417792F86218817749
:10E03000704701F5005191F8892800F8502F91F8A8
:10E040008A28427091F80429027491F805194174E4
:10E05000704701F5005201F5205192F82C390370F8
:10E0600091ED4C0A80ED010A92F83439037291ED7A
:10E070004E0A80ED030A91ED4F0A80ED040A92F8F2
:10E080004039037591ED510A80ED060A92F848393E
:10E09000037791ED530A80ED080A92F8503980F821
:10E0A000243091ED550A80ED0A0A91ED560A80ED73
:10E0B0000B0A92F85C3980F8303091ED580A80ED07
:10E0C0000D0A91ED590A80ED0E0A92F8683980F830
:10E0D0003C3091ED5B0A80ED100A91ED5C0A80ED19
:10E0E000110A92F8743980F8483091ED5E0A80ED9B
:10E0F000130A91ED5F0A80ED140A91ED600A80ED3C
:10E10000150A92F8843980F8583091ED620A80ED52
:10E11000170A91ED630A80ED180AB2F89019A0F879
:10E120006410B2F89219A0F8661092F8941980F869
:10E130006810704701F5005201F5205192F87C38C3
:10E1400080F84330B2F87E38A0F8443091ED200AD0
:10E1500080ED120AB2F88418A0F84C10B2F88618B4
:10E16000A0F84E10704701F5205201F5005192EDD4
:10E17000460A80ED000A91F81C39037191F81D19C7
:10E18000417192ED480A80ED020A92ED490A80ED54
:10E19000030A92ED4A0A80ED040A704701F5005225
:10E1A00001F5205192F89839037091ED670A80EDDE
:10E1B000010A91ED680A80ED020A91ED690A80ED8D
:10E1C000030A91ED6A0A80ED040A92F8AC19017510
:10E1D000704701F5005201F5205192F8B0390370F3
:10E1E00091ED6D0A80ED010A91ED6E0A80ED020A53
:10E1F00091ED6F0A80ED030A91ED700A80ED040A3B
:10E2000092F8C439037591ED720A80ED060A91ED1A
:10E21000730A80ED070A92F8D01980F8201092F85E
:10E22000D11980F82110704701F6D41101F5005181
:10E230000A7802704A7842704A8842808A888280CE
:10E2400089798171704701F5205201F5005192EDF5
:10E25000770A80ED000A92ED780A80ED010A91F8C4
:10E26000E439037291F8E519417292ED7A0A80ED72
:10E27000030A92ED7B0A80ED040A704700F5105006
:10E2800090ED4F0A704701F68E0101F500510A78B2
:10E2900080F8522091F8632180F89B2091F8642146
:10E2A00080F89C2091F8672180F89F2091F86821E0
:10E2B00080F8A020CA7980F85320097880F852109D
:10E2C000704701F5005191F8912800F8542FB1F8EA
:10E2D000FC298286B1F8FE29C286B1F8002A02879D
:10E2E000B1F8021A4187704701F5005191F894285E
:10E2F00080F85520B1F8042AA0F8902091F8061A69
:10E3000080F89210704701F6082101F500510A7853
:10E3100000F8942F4A7842708A78827089888180C8
:10E32000704701F5005191F8F92900F8A32F91F8F1
:10E33000FA194170704701F5005201F5205192F829
:10E34000923880F8563092F8983880F8573092F822
:10E35000993880F8583092F89C3880F85A3092F802
:10E360009D2880F85B2091ED280A80ED170A704700
:10E3700001F5005191F8901880F86210704701F58E
:10E38000005191F8AA1A80F86310704701F5005106
:10E3900091F8AB1A80F86410704701F5005191F8BC
:10E3A000AC1A80F86510704701F50052B2F8043AD3
:10E3B000A0F89030B2F848378384B2F89039A0F8CA
:10E3C0002031B2F89239A0F82231B2F88638A0F89C
:10E3D0004E3092F8063A80F89230B2F87E38A0F8C3
:10E3E000443001F5205301F5105193ED200A80EDE2
:10E3F000120A91ED700A80ED070AB2F8481781847D
:10E4000092F8AD1A80F8661092F8AE1A80F867108C
:10E4100092F8041980F86010704710B501F50052A9
:10E42000D2F8A83540F8683FB2F86E38838092F889
:10E43000CC358371B2F87A38038101F5205301F5A8
:10E44000105193ED0B0A80ED030A92F8934804747F
:10E45000B2F86C48448293ED1C0A80ED050A91EDF8
:10E460006F0A80ED060A92F8CB15017792F88818AA
:10E47000417792F8901800F8061C92F854158177AD
:10E4800010BD000030B500F5005231F9043BA2F890
:10E49000443591ED000A00F5105080ED520A91EDDF
:10E4A000010A80ED530A91ED020A80ED540A91EDC4
:10E4B000030A80ED2D0A91ED040A80ED310A91EDF9
:10E4C000060A80ED700A91ED070A80ED400A0C8C77
:10E4D000A2F848474C8CA2F84A4791F8244082F8A9
:10E4E000524791F8255082F8535791F8265082F8F8
:10E4F000545782F86C4791F8281082F8C0171421FD
:10E5000093FBF1F4A2F8A44400249FEDF90A142B24
:10E5100001D0C82B05D1C2F85845C2F85C1580ED72
:10E520003E0A80ED3D0A30BD00F5005291F82D30D5
:10E5300082F8173991ED0C0A00F5205080ED130A8E
:10E5400091F8343082F8503891F8353082F8263816
:10E5500091F8363082F8273891F8373082F8513800
:10E5600091ED0E0A80ED150A91F83C0082F85808EA
:10E5700091F83D0082F8590891F83E0082F85E0853
:10E5800091F83F0082F85F0891F8400082F8600837
:10E5900091F8410082F8610891F8420082F862081F
:10E5A000704700F5005011F8502F80F889284A78FC
:10E5B00080F88A280A7C80F80429497C80F80519AB
:10E5C000704700F5005291F8433082F87C38B1F87A
:10E5D0004430A2F87E3891ED120A00F5205080ED0B
:10E5E000200AB1F84C00A2F88408B1F84E00A2F855
:10E5F0008608704700F500520B7882F82C3991EDAF
:10E60000010A00F5205080ED4C0A0B7A82F834396B
:10E6100091ED030A80ED4E0A91ED040A80ED4F0A58
:10E620000B7D82F8403991ED060A80ED510A0B7F8F
:10E6300082F8483991ED080A80ED530A91F82430A8
:10E6400082F8503991ED0A0A80ED550A91ED0B0AD6
:10E6500080ED560A91F8303082F85C3991ED0D0A60
:10E6600080ED580A91ED0E0A80ED590A91F83C3080
:10E6700082F8683991ED100A80ED5B0A91ED110A7C
:10E6800080ED5C0A91F8483082F8743991ED130AF4
:10E6900080ED5E0A91ED140A80ED5F0A91ED150A96
:10E6A00080ED600A91F8583082F8843991ED170AAC
:10E6B00080ED620A91ED180A80ED630AB1F86400FA
:10E6C000A2F89009B1F86600A2F8920991F86800E2
:10E6D00082F89409704791ED000A00F5205200F588
:10E6E000005082ED460A0B7980F81C394B7980F88E
:10E6F0001D3991ED020A82ED480A91ED030A82ED7F
:10E70000490A91ED040A82ED4A0A704700F5005269
:10E710000B7882F8983991ED010A00F5205080EDD0
:10E72000670A91ED020A80ED680A91ED030A80ED17
:10E73000690A91ED040A80ED6A0A087D82F8AC0945
:10E74000704700F500520B7882F8B03991ED010A5C
:10E7500000F5205080ED6D0A91ED020A80ED6E0A01
:10E7600091ED030A80ED6F0A91ED040A80ED700AC5
:10E770000B7D82F8C43991ED060A80ED720A91EDA5
:10E78000070A80ED730A91F8200082F8D00991F809
:10E79000210082F8D109704700F6D41000F500502E
:10E7A0000A7802704A7842704A8842808A88828059
:10E7B00089798171704791ED000A00F5205200F5CA
:10E7C000005082ED770A91ED010A82ED780A0B7A0A
:10E7D00080F8E4394B7A80F8E53991ED030A82ED4F
:10E7E0007A0A91ED040A82ED7B0A704700F5105019
:10E7F00080ED4F0A704700F68E0000F5005091F84A
:10E800005920427391F89B2080F8632191F89C2055
:10E8100080F8642191F89F2080F8672191F8A0206A
:10E8200080F8682191F85320C27191F8521001705C
:10E83000704700F5005011F8542F80F891288A8E07
:10E84000A0F8FC29CA8EA0F8FE290A8FA0F8002A99
:10E85000498FA0F8021A704700F5005091F8552032
:10E8600080F89428B1F89020A0F8042A91F892102A
:10E8700080F8061A704700F6082000F5005011F8DD
:10E88000942F02704A7842708A78827089888180D9
:10E89000704700F5005011F8A32F80F8F929497846
:10E8A00080F8FA19704700F5005291F8563082F856
:10E8B000923891F8573082F8983891F8583082F8A9
:10E8C000993891F85A3082F89C3891F85B3082F888
:10E8D0009D3891ED170A00F5205080ED280A704709
:10E8E00000F5005091F8631080F8AA1A70470000F4
:10E8F0000000484200F5005091F8641080F8AB1A0F
:10E90000F4E700F5005091F8651080F8AC1AEDE7D7
:10E9100000F50052B1F89030A2F8043A8B8CA2F8BE
:10E920004837B1F82031A2F89039B1F82231A2F875
:10E930009239B1F84E30A2F8863891F8923082F8C8
:10E94000063AB1F84430A2F87E3891ED120A00F58B
:10E95000205300F5105083ED200A91ED070A80ED59
:10E96000700A888CA2F8480791F8660082F8AD0A10
:10E9700091F8670082F8AE0A91F8600082F8040905
:10E98000B4E7000070479FED010A704700000000E7
:10E9900090F8301089B9012180F830105FF0000143
:10E9A000D0ED0D0A00EB8102491CC2ED000AD0ED4A
:10E9B000210A0629C2ED060AF2DBD0ED1D0A90ED10
:10E9C000001AD0ED0E1A60EE800A90ED0F0A90ED5D
:10E9D000012AD0ED072A20EE010A01EEA00AD0EDAF
:10E9E000101A01EE820A90ED172AD0ED061A02EEF7
:10E9F000610A90ED182AC0ED071A02EE620A80ED56
:10EA0000060AC0EC020AD0ED1E0AD0ED021A90ED03
:10EA1000111A60EE800A90ED120A90ED032AD0EDF3
:10EA2000092A20EE210A01EE200A90ED131A01EEC8
:10EA3000020A90ED192A90ED081A02EE410A90EDB3
:10EA40001A2AC0ED031AC0ED020A80ED091A02EE7F
:10EA5000620A80ED080AD0ED1F0A90ED041AD0ED8D
:10EA6000141A60EE800A90ED150A90ED052AD0ED9B
:10EA70000B2A20EE010A01EEA00AD0ED161A01EED3
:10EA8000820A90ED1B2AD0ED0A1A02EE610A90ED7F
:10EA90001C2A80ED051AC0ED040AC0ED0B1A02EE27
:10EAA000620A80ED0A0A7047FE4A002102EB8103E8
:10EAB00093ED000A00EB8103491C83ED1D0A042934
:10EAC000F4DBF84A0021103202EB810393ED000AD7
:10EAD00000EB8103491C83ED170A0629F4DBF14A98
:10EAE0000021283202EB810393ED000A00EB810341
:10EAF000491C83ED0E0A0929F4DB9FEDEB0A002186
:10EB000080ED210A80ED0D0A80F83010704790F8F2
:10EB1000401081B9012180F840100021D0ED110A88
:10EB200000EB8102491CC2ED000AD0ED2B0A082936
:10EB3000C2ED080AF2DBD0ED260A90ED001AD0ED06
:10EB4000121A60EE800A90ED130A90ED012AD0EDC2
:10EB5000092A20EE010A01EEA00AD0ED141A01EEF6
:10EB6000820A90ED1E2AD0ED081A02EE610A90ED9D
:10EB70001F2AC0ED091A02EE620A80ED080AC0ECF5
:10EB8000020AD0ED270AD0ED021A90ED151A60EEB8
:10EB9000800A90ED160A90ED032AD0ED0B2A20EEA4
:10EBA000210A01EE200A90ED171A01EE020A90EDFB
:10EBB000202A90ED0A1A02EE410A90ED212AC0EDBA
:10EBC000031AC0ED020A80ED0B1A02EE620A80ED14
:10EBD0000A0AD0ED280A90ED041AD0ED181A60EE5A
:10EBE000800A90ED190A90ED052AD0ED0D2A20EE4D
:10EBF000010A01EEA00AD0ED1A1A01EE820A90ED88
:10EC0000222AD0ED0C1A02EE610A90ED232A80ED43
:10EC1000051AC0ED040AC0ED0D1A02EE620A80ED7D
:10EC20000C0AD0ED290AD0ED061A90ED1B1A60EE01
:10EC3000800A90ED1C0A90ED072AD0ED0F2A20EEF5
:10EC4000210A01EE200A90ED1D1A01EE020A90ED54
:10EC5000242A90ED0E1A02EE410A90ED252A02EECA
:10EC6000620AC0ED071AC0ED060A80ED0F1A80EDAA
:10EC70000E0A70478B4A002112F14C0202EB81030D
:10EC800093ED000A00EB8103491C83ED260A052958
:10EC9000F4DB844A0021603202EB810393ED000A29
:10ECA00000EB8103491C83ED1E0A0829F4DB7D4A31
:10ECB0000021803202EB810393ED000A00EB810317
:10ECC000491C83ED120A0C29F4DB9FED770A002121
:10ECD00080ED2B0A80ED110A80F84010704790F803
:10ECE000301081B9012180F830100021D0ED0D0ADB
:10ECF00000EB8102491CC2ED000AD0ED210A062971
:10ED0000C2ED060AF2DBD0ED1D0A90ED001AD0ED3F
:10ED10000E1A60EE800A90ED0F0A90ED012AD0EDF8
:10ED2000072A20EE010A01EEA00AD0ED101A01EE2A
:10ED3000820A90ED172AD0ED061A02EE610A90EDD4
:10ED4000182AC0ED071A02EE620A80ED060AC0EC2E
:10ED5000020AD0ED1E0AD0ED021A90ED111A60EEF3
:10ED6000800A90ED120A90ED032AD0ED092A20EED8
:10ED7000210A01EE200A90ED131A01EE020A90ED2D
:10ED8000192A90ED081A02EE410A90ED1A2AC0EDF8
:10ED9000031AC0ED020A80ED091A02EE620A80ED44
:10EDA000080AD0ED1F0A90ED041AD0ED141A60EE97
:10EDB000800A90ED150A90ED052AD0ED0B2A20EE81
:10EDC000010A01EEA00AD0ED161A01EE820A90EDBA
:10EDD0001B2AD0ED0A1A02EE610A90ED1C2A80ED82
:10EDE000051AC0ED040AC0ED0B1A02EE620A80EDAE
:10EDF0000A0A70472B4A002112F1B00202EB81038C
:10EE000093ED000A00EB8103491C83ED1D0A0429E0
:10EE1000F4DB244A0021C03202EB810393ED000AA7
:10EE200000EB8103491C83ED170A0629F4DB1D4A18
:10EE30000021D83202EB810393ED000A00EB81033D
:10EE4000491C83ED0E0A0929F4DB00219FED160A07
:10EE500080ED210A80ED0D0A80F83010704790F89F
:10EE6000401081B9012180F840100021D0ED110A35
:10EE700000EB8102491CC2ED000AD0ED2B0A0829E3
:10EE8000C2ED080AF2DBD0ED260A90ED001AD0EDB3
:10EE9000121A60EE800A90ED130A20EE010A01EECC
:10EEA000A00A03E07C71040000000000D0ED141AF9
:10EEB00090ED012AD0ED092A01EE820A90ED1E2A7A
:10EEC000D0ED081A02EE610A90ED1F2AC0ED091A72
:10EED00002EE620A80ED080AC0EC020AD0ED270AB1
:10EEE000D0ED021A90ED151A60EE800A90ED160A28
:10EEF00090ED032AD0ED0B2A20EE210A01EE200A24
:10EF000090ED171A01EE020A90ED202A90ED0A1AF0
:10EF100002EE410A90ED212AC0ED031AC0ED020A6B
:10EF200080ED0B1A02EE620A80ED0A0AD0ED280A83
:10EF300090ED041AD0ED181A60EE800A90ED190ACF
:10EF400090ED052AD0ED0D2A20EE010A01EEA00A6F
:10EF5000D0ED1A1A01EE820A90ED222AD0ED0C1A99
:10EF600002EE610A90ED232A80ED051AC0ED040A35
:10EF7000C0ED0D1A02EE620A80ED0C0AD0ED290AEE
:10EF8000D0ED061A90ED1B1A60EE800A90ED1C0A77
:10EF900090ED072AD0ED0F2A20EE210A01EE200A7B
:10EFA00090ED1D1A01EE020A90ED242A90ED0E1A42
:10EFB00002EE410A90ED252AC0ED071AC0ED060ABF
:10EFC00080ED0F1A02EE620A80ED0E0A70471A4AAF
:10EFD000002100BF02EB810393ED000A00EB8103E7
:10EFE000491C83ED260A0529F4DB134A002114325B
:10EFF00002EB810393ED000A00EB8103491C83EDD2
:10F000001E0A0829F4DB0C4A0021343202EB81038A
:10F0100093ED000A00EB8103491C83ED120A0C29D1
:10F02000F4DB1FED5F0A002180ED2B0A80ED110A51
:10F0300080F8401070470000787204004FF480613F
:10F0400001801821C180E1218180F0219FED140A07
:10F05000418080EDF50A9FED130A80EDF60A7047B6
:10F060000521018000219FED100A05E000EB8102DF
:10F07000491C82ED010A09B2B0F900208A42F5DC90
:10F080000021418080ED060A7047B6EE000A80ED4F
:10F09000010A00219FED040A018080ED020A7047F9
:10F0A0000000963FCDCC4C3D000000002DE9F04F14
:10F0B00000F500542DED088B054681B0B0EE608A56
:10F0C000F0EE408A94F8A40805F52057012814D1E1
:10F0D00097ED840AF1EE040A42F6C80038EEC00A41
:10F0E000284487ED850A20EE200AC7ED848A87ED43
:10F0F0002A0A00F0C2FDF0EE408A94F8A508F7EE67
:10F1000008AA012809D197ED860A38EE400A87ED52
:10F11000870A87ED868A20EE2A8AB0EE680A05F50E
:10F120009660FFF7DCFDB0EE409A05F5DC70B0EEBE
:10F13000680A8046FFF793FE94F8A41842F6D400BC
:10F140002E18012902D1304600F097FDB0EE680A72
:10F150004046FFF784FE94F8A408F0EE409A012898
:10F1600006D1B0EE690A304600F087FDF0EE409A15
:10F17000B0EE480A05F51A70FFF7C9FCB0EE40AAD8
:10F18000B0EE690A05F54670FFF702FCF0EE409A12
:10F19000B0EE4A0A05F56870FFF7FAFB05F5105660
:10F1A000B0EE40AA96ED5A0AD6ED5B0A20EE000AB0
:10F1B00000EEA00AD6ED5C0A00EEA00A13F093FE62
:10F1C00005F58560FFF7E4FBC6ED429A86ED43AA9C
:10F1D000012384F85D34B4F8AA04F0EE400A05EB8C
:10F1E000800000F5C050C0ED339AB4F8AA0405EBD6
:10F1F000800000F5E05080ED2BAAB4F8AA14182086
:10F20000B1FBF0F200FB121105EB810101F5105189
:10F2100081ED7F8AB4F8AA14B1FBF0F200FB121161
:10F2200005EB810101F51051C1ED978AB4F8AA14DC
:10F23000B1FBF0F200FB121005EB800000F510505E
:10F2400080EDAF9AB4F8AA0405EB800000F50050F9
:10F25000C0ED230AB4F8AA04401C82B2A4F8AA2480
:10F26000B4F8AC04B0F5007F02D2401CA4F8AC04A2
:10F2700081B2782909D0902907D0A82905D0C029C2
:10F2800003D0D82901D0F02A7ED10120F02934D230
:10F29000B4F9AC142FE000BFB4F8AC24121A05EB9B
:10F2A000820202F5C05292ED330A05EB810202F5AB
:10F2B000C05C8CED330AB4F8ACC4ACEB000C05EBCD
:10F2C0008C0C0CF5E05C9CED2B0A02F5E05C02F581
:10F2D00000528CED2B0AB4F8ACC4ACEB000C05EB7F
:10F2E0008C0C0CF5005C401C9CED230A491C82ED43
:10F2F000230AC0B209B2F029CEDB994684F85E3405
:10F300006946284600F002FD9DED000A87ED0B0AD4
:10F310009FEDFE8A5FF0000086EDC88A05EB800154
:10F3200001F51051D6EDC80A91ED7F1A401C00B2CC
:10F3300070EE810A1828C6EDC80AEFDBB0EE601A3D
:10F34000F3EE080AB6EE0EAA60EE201AC1EE210A0C
:10F35000C6EDC80A94F85F049FEDEDBA48B396ED88
:10F36000C91AF6EE0C1A21EE211AF4EE001A00EE7C
:10F37000A11A86EDC91A96EDD01A21EE0A1A00EEEE
:10F380000B1A86EDD01A00E06AE396EDC91A4FF029
:10F39000000830EEC11AC1EE201AC6EDCA1AB4F93F
:10F3A0000E0800280ADD94F81609401C84F8160996
:10F3B00006E0C6EDC90A86EDD00AE4E784F81689AE
:10F3C00094F85607F6EE08BAF1EE088AE8BBD6EDD7
:10F3D000D00A60EEAA0AF4EEC00AF1EE10FA0FD2DB
:10F3E000D6ED310A60EEA80AF4EEC00AF1EE10FA8A
:10F3F00006D296ED5E0AB4EEE00AF1EE10FA2ADCCF
:10F4000094F8540501281FD1B4F9EA0508281BDD3A
:10F41000B86B07F0CCFC9FEDBF1B53EC112B07F032
:10F420008FFB41EC190BB4F9F20507F06AFC53ECC1
:10F43000192B07F0E3FC07D294F8300801280AD012
:10F44000022808D0032806D000E016E094F85707F9
:10F45000012805D011E084F8569784F8578718E002
:10F4600096EDD00ADDED000A20EE2B0AB4EEE00A9C
:10F47000F1EE10FA01D284F8578794F85607012864
:10F4800003D094F8160919284CD994F85707012885
:10F4900024D096EDD00ADFEDA10A9DED001A60EEB2
:10F4A000200AF4EEC10AF1EE10FA08DDD6ED311AA9
:10F4B00061EEA81AB4EEE10AF1EE10FA40DCB4F9FC
:10F4C0008C08B4F90E18401A94F8E419B0EB410F07
:10F4D00016DD94F88F0801280ED011E096EDD00AC1
:10F4E000DDED000A20EE2B0AB4EEE00AF1EE10FA90
:10F4F00018D284F8578715E094F8980801281FD08F
:10F50000F4EEC10AF1EE10FA0CDDD6ED310A60EE30
:10F51000A80AB4EEE00AF1EE10FA03D284F8568796
:10F5200084F85787B4F80E08A4F88C0894F8AC0A4D
:10F53000012894F8540508D088B301283CD046E04F
:10F5400084F8568784F85797ECE7754910B101287D
:10F550000CD03CE0386F884239DDB4F96C0878286B
:10F5600035DA84F8549584F8548A30E0386F88424C
:10F5700004DA6C49D7F84402884208DD96ED530A54
:10F58000DDED000AB4EEE00AF1EE10FA1FDD94F8AA
:10F59000540A052819D2401C84F8540A17E0FFE7E2
:10F5A00096ED540ADDED000AB4EEE00AF1EE10FA31
:10F5B0000DD284F854950AE096ED530ADDED000A69
:10F5C000B4EEE00AF1EE10FA01DD84F8548594F807
:10F5D0008F08D7ED1C0AF0B1B4F9000A00EE100A4A
:10F5E000B8EEC00AF4EEC00AF1EE10FA0ED2B4F989
:10F5F000020ADDED000A00EE100AB8EEC00AB4EE11
:10F60000E00AF1EE10FA01D284F88F8894F891089C
:10F6100001281BD01EE0B4F9FC0900EE100AB8EE78
:10F62000C00AF4EEC00AF1EE10FA0CDCB4F9FE09DF
:10F63000DDED000A00EE100AB8EEC00AB4EEE00AF2
:10F64000F1EE10FAE2D284F88F98DFE794F88F0891
:10F6500084F8540594F85C144FF0050B05F5805AB6
:10F6600004297DD197ED0B0A284604F07DFC28463D
:10F6700004F067F994F87C08012836D194F85F0407
:10F6800098BBB4F96C08B4F97E1888422DDD97ED6B
:10F690001C0AD7ED200AB4EEE00AF1EE10FA24D2EB
:10F6A000B4F96E08B4F9841888421EDAB4F98608F1
:10F6B000DDED000A00EE100AB8EEC00AB4EEE00A72
:10F6C000F1EE10FA11DDB4F87A08B4F89219884214
:10F6D0000BD9B4F89019884207D284F854859FED6D
:10F6E000120A8DED000A87ED0B0A97ED0B0A2846EA
:10F6F00003F035FA94F84C0708B984F84C9794F85D
:10F700008908012837D194F888080FE0000000002C
:10F710000000803D000000000000F43F6666263FC8
:10F72000000048428FC2753DCDCC4C3E012822D10D
:10F7300097ED0B0A284601F005FC94F85F040128B8
:10F7400022D0B4F8660400BFA4F86404DAF88C1C74
:10F7500000B201EB800090ED000A86ED300A00E077
:10F7600009E0B4F8E604401C00B2A4F8E604052859
:10F7700001DDA4F8E6B494F85F040423032705F53B
:10F78000E051012803D0B9E0B4F86204DCE7B4F931
:10F79000E60400287DDD94F8540501287AD094F819
:10F7A000BE0796EDC70AD6EDF10A01287DD09FED80
:10F7B000AF1A60EE810AB4EEE00AF1EE10FA6BDDEA
:10F7C00094F8BF07401CC0B284F8BF07032803D3D6
:10F7D00084F8BF7784F8BE97B4F962046FF0030C25
:10F7E000DAF88C2C0CEB800C9444DCED001AF5EE6E
:10F7F000C01AF1EE10FA23D0A0F1010C03EB800344
:10F8000000EE10CA134402EB800293ED002AB8EE1A
:10F81000C00A431C00EE903A92ED001A21EE800AD5
:10F82000F8EEE00A02EE200A00EE900AF8EEE00A96
:10F8300001EE200A71EE820A70EE810A80EE208AC3
:10F8400091ED240AD6ED350A42F21C50284420EEF0
:10F85000080A20EE200A86ED410A00F08FFA42F2F3
:10F86000385096ED4D0A284400F0EAFAD6F84001E7
:10F870007F49C6F80001884203DD9FED7E0A86EDD0
:10F88000400A7D49D6F80001884208DAB3EE0E0A34
:10F8900003E033E012E008E015E086ED400A84F86A
:10F8A0005D7494F8550588B123E09FED741A60EEFD
:10F8B000810AB4EEE00AF1EE10FA8DD284F8BF8727
:10F8C00084F8BE8788E784F8BF8785E794F85405F5
:10F8D00078B96B49D6F8000188420ADD96ED300A06
:10F8E000D6ED520AB4EEE00AF1EE10FA01DD84F82A
:10F8F000559594F84C07012872D089E094F8C80512
:10F90000012812D196ED6F0AD6ED700AB4EEE00A26
:10F91000F1EE10FA09D894F88908012802D084F889
:10F920005D3475E084F85DB472E094F84C0702220F
:10F93000012809D194F84D0730B994F84E0718B949
:10F9400094F85207012802D084F85D2460E0BAF9E7
:10F95000C40891ED241A00EE100AD6ED350AB8EE6F
:10F96000C00A20EE010A20EE200A86ED400A94F833
:10F970006C17012905D1A4F8620484F85F94A4F8F7
:10F98000E62410EE100A3F4A4FF40A03104498424E
:10F9900022D9BAF9C608012900EE100AB8EEC00A49
:10F9A00020EE010A20EE200A86ED400A01D1A4F8DB
:10F9B000620410EE100A104498420DD961EE200A3C
:10F9C0009FED310A86ED400A80EE201ABDEEC10A95
:10F9D00010EE100AA4F8620484F85D7418E0FFE7E2
:10F9E00094F84D07012813D1B4F96214D4F8A00596
:10F9F00000EE101AB8EEC00A28B120EE0B0AD6EDC0
:10FA0000D70A00EE8A0A401C86EDD70AC4F8A00582
:10FA1000B4F8AA04F02823D141F62C1029184FF489
:10FA2000587641F6CC003246284400F06FFA41F691
:10FA30000C50291841F6AC403246284400F066FAD2
:10FA400042F2EC00291842F28C003246284400F0C1
:10FA50005DFAD820A4F8AA0494F84C0784F84D075E
:10FA600001B0BDEC088BBDE8F08F0000CDCC4C3F61
:10FA700000007043000070430000F0416666E63EFF
:10FA8000000034420000B8BD0000904230B500F5DF
:10FA900020510B46D1ED880A30EE800A81ED880AAC
:10FAA00000F50051B1F8A824B1F8A444A24251D104
:10FAB000D1F8E82400F51050521CC1F8E82490ED6C
:10FAC0003D1A70EE410AF5EEC00AF1EE10FA01D2CD
:10FAD00071EE400AD0ED3E1AF4EEE10AF1EE10FAB2
:10FAE0000AD2D0ED3C0A30EE800A80ED3C0AD1F813
:10FAF000EC44641CC1F8EC44D1F85855D1F85C458D
:10FB0000DFED170A2544954222D8D1F8EC24A24211
:10FB10001ED900EE102AD0ED3C1A91F86044B8EEE0
:10FB2000C00A0022012C20EE011A81EE210A12D017
:10FB300090ED351A31EE000AB6EE001A20EE010AF9
:10FB400080ED350AC0ED3C0AC1F8EC24C1F8E82488
:10FB5000C3ED880A30BD80ED350A81F86024F1E7F5
:10FB60000000000000F5005200F52051B2F9243ADF
:10FB700093B1D1ED8A0A70EE600A5B1C1BB200F5EE
:10FB80000050A2F8243A90F8340A182B1BDB92F8A4
:10FB9000353A012B03D004E0DFED0E0AEDE7D1ED9D
:10FBA0008B0A91ED8C1A182331EE201A81ED8C1AF4
:10FBB000A2F8243A81ED8A0A82F8350AC1ED8B0A4F
:10FBC000B0EE410A704782F8350A81ED8A0A81ED6C
:10FBD0008C0A7047000000007047704770477047FC
:10FBE000704770477047704770477047704770475D
:10FBF00000219FED450A0AE0426802EB810282ED96
:10FC0000000A026802EB8102491C82ED000A427A76
:10FC10008A42F1DC00210172704710B5044641723E
:10FC200088001AF079FC6060607A80001AF074FC39
:10FC3000206000209FED340A0AE0616801EB80013A
:10FC400081ED000A216801EB8001401C81ED000A72
:10FC5000617A8142F1DC0020207210BD70B504464B
:10FC60004068002510B118F01DFD6560206800286F
:10FC700002D018F017FD256070BD70B5044600680D
:10FC800080ED000A607A20728200D4E9001000F052
:10FC90003DF9227A0021531E1AE0481C15E06668DF
:10FCA00006EB810506EB800695ED000AD6ED000A0D
:10FCB000B4EEE00AF1EE10FA06DDC5ED000A656863
:10FCC00005EB800585ED000A401C9042E7DB491CEE
:10FCD0009942E2DB607A6FF0030209E0216802EBEF
:10FCE00080030B4401EB800193ED000A81ED000AD3
:10FCF000401E0028F2DC217A6068490800EB810090
:10FD000090ED000A70BD0000000000007CB50446C4
:10FD100041F6AC400D46204401AB6A46F021064650
:10FD200002F0F7FA85ED000A01AB6A46D8213046A9
:10FD300002F0EFFA04F5105542F20C0085ED5D0A71
:10FD400001AB6A461821204402F0E3FA42F2BC609B
:10FD500085ED5E0A01AB6A461821204402F0D9FA0B
:10FD600041F6CC0085EDC70A01AB6A461821204454
:10FD700002F0CFFA85EDF10A7CBD0000F0B5044633
:10FD8000408885B030B10AE004EB8001401C81ED71
:10FD9000010A00B2B4F90010491E8142F4DC208847
:10FDA00006E000BF04EB8001D1ED000AC1ED010ABD
:10FDB000401E00B20028F5DC84ED010A6088401C7A
:10FDC00001B26180B4F90000814200DD60808200F0
:10FDD000211D684600F09AF8B4F900200020694619
:10FDE000551E22E001EB8007034697ED000A401CF8
:10FDF00000B2F0EE400A06460EE000BF01EB800CB8
:10FE00009CED001AB4EEC01AF1EE10FA02DDB0EE6D
:10FE1000410A0346401C00B28242EFDC01EB830042
:10FE200087ED000AC0ED000A30468542DADC50104A
:10FE300001EB800090ED000A84ED060A05B0F0BDEC
:10FE4000B0F90010A9B1D0ED010A90ED021AF7EE59
:10FE5000001A20EE811A71EEE00A00EE801A80EDA1
:10FE6000021A491C09B20180012901DD012101802A
:10FE7000704780ED020AF4E72DE9F05F05460020A7
:10FE800092469B4688460646814640241BE028460B
:10FE900041464746224607F006F853465A46C01ADE
:10FEA000914110D311461846224606F0EDFF2D1A57
:10FEB00067EB01084F4622460120002106F0E4FFCF
:10FEC00017EB00094E41201EA4F10104DFDC484677
:10FED00031462A464346BDE8F09FA0F14101192969
:10FEE00000D82030704700000649074A0868504390
:10FEF00043F2390210440860400870470149086025
:10FF0000704700005C2400206D4EC64140EA0103AA
:10FF10009B0703D009E008C9121F08C0042AFAD2BF
:10FF200003E011F8013B00F8013B521EF9D2704783
:10FF3000D2B201E000F8012B491EFBD2704700222B
:10FF4000F6E710B513460A4604461946FFF7F0FFD8
:10FF5000204610BD421E12F8013F002BFBD111F8C4
:10FF6000013B02F8013B002BF9D1704730B5054643
:10FF70002A460B4612F8010B13F8014B08B1A042B8
:10FF8000F8D01CB1002802D06D1CF1E7284630BD26
:10FF900010B5044604E00B7800F8013B03B1491C9E
:10FFA000521EF8D2204610BD421C10F8011B002939
:10FFB000FBD1801A704710B5002200E0521C835C10
:10FFC0008C5CA34201D1002BF8D1D8B2E1B2401A27
:10FFD00010BD30B504460020034600E05B1C934290
:10FFE00003D2E05CCD5C401BF8D030BD034611F875
:10FFF000012B00F8012B002AF9D1184670477047F1
:020000040002F8
:10000000785634129FEDFD0A002180ED030A8174B9
:10001000818201228275C17580ED0B0A80ED0C0A88
:1000200080ED0D0A80ED0E0A80ED0F0A80ED100ABA
:1000300080ED110A80ED120A01764183C18380F8B8
:10004000211080F8201080F8281080F829107047BF
:10005000B3EE000A80ED000A9FEDE90A032180ED6E
:10006000010A01810A210182CCE770472DE9F05F86
:1000700015462DED088B88460446B0EE408AF0EE1A
:10008000418ADDE91490DDE91212DDF858B0B0EED6
:10009000609A84ED038A69B10026002D10D084F89F
:1000A000216014DD94F8201064291BD2491C84F8C7
:1000B000201017E0B0EE480ABDEC088BBDE8F09FB9
:1000C00094F82110642902D2491C84F8211094F874
:1000D0002810012900D118B194F821100A2901D95A
:1000E00084F820600127012801D038B108E094F895
:1000F00020100A2904D984F8287001E084F82860C7
:10010000F5EEC08AF1EE10FA02D184F8296006E01B
:1001100094F82910802902D2491C84F8291094F8F7
:100120002810B1EE000A01290BD0B9F1010F17D147
:10013000618B642901D2002D03DC94F82910062973
:100140000ED26168B1F1844F22D184ED000AB2EE83
:10015000000A84ED010AD4ED0B0AB5EE000A0DE0A9
:100160006168B1F1824F13D1F3EE000AC4ED000AC9
:10017000DFEDA30AC4ED010AD4ED0B0A60EE800A9C
:10018000C4ED0B0AD4ED0C0A20EE800A84ED0C0AB3
:10019000B9F1010F12D06683B4F91C10691A06294F
:1001A00000DD668394ED110ADFF858A2B8F1000F64
:1001B00078EE409A08D002437DD0D7E0618B962933
:1001C000EAD2491C6183E7E738EE680AB5EEC00A57
:1001D000F1EE10FA01D238EEC80A10EE100A9FEDC7
:1001E0008AAB504527DB19EE100A06F0E0FD53EC10
:1001F0001A2B06F0A5FC41EC1B0B18EE900A06F03A
:10020000D6FD53EC1B2B06F0F9FD14D319EE100AA2
:1002100006F0CDFD9FED7E1B53EC112B06F090FCFC
:1002200041EC1B0B18EE900A06F0C1FD53EC1B2BA2
:1002300006F0D0FD03D284ED038AE67549E084ED33
:10024000038AE08B082802D3B0EE688A05E0401CE0
:10025000E083BBF1010F00D1E77594ED090AF3EEDD
:10026000040A30EE201AB4EEE81AF1EE10FA30D398
:1002700030EE600AB4EEE80AF1EE10FA29DC19EE6D
:10028000100A06F094FD53EC1A2B06F059FC41ECD1
:100290001A0B18EE900A06F08AFD53EC1A2B06F0A2
:1002A000ADFD16D319EE100A06F081FD9FED5A1B25
:1002B00053EC112B00E010E006F042FC41EC1A0B6D
:1002C00018EE900A06F073FD53EC1A2B06F082FD2F
:1002D00000D2E683BDB3A6744AE03C2D46DD00EEB5
:1002E000105AB8EEC00AB4EEC80AF1EE10FA3DDDBD
:1002F00005EB450000EBD070401000EE100AB8EEA0
:10030000C00A38EE400AB5EEC00AF1EE10FA00EE6F
:10031000100AB8EEC00A02D230EE480A01E038EE08
:10032000400A00EE905AF8EEE00A78EE600AF5EE28
:10033000C00AF1EE10FA00EE905AF8EEE00A03D28D
:1003400070EEC80A02E013E078EE600AB4EEE00A4C
:10035000F1EE10FA02D200EE100A01E000EE105A9F
:10036000B8EEC00A84ED030AE77500E0E675E6839F
:10037000D4ED030A94ED111A30EEC10AB5EEC00AAD
:10038000F1EE10FA01D231EE600AB4F9100000EE7D
:10039000900AF8EEE00AB4EEE00AF1EE10FA04DD9D
:1003A000A774207E012804D000E0A674207E18B136
:1003B00003E084ED031A05E0E675A07C012801D076
:1003C000A68209E0B4F91400B4F90810884201DDEE
:1003D000A67502E0401CA082A775E07DA17DF0EE2D
:1003E000000AE0B394ED0B0AD1B3D4ED0D0A70EE20
:1003F000600A94ED030A70EE800A11E0000000002C
:10040000000000420000A040000000000000FC3F8F
:10041000000000000000E03FCDCCCCCCCCCCE43FD1
:10042000C4ED0B0AD4ED0C0A94ED0E1A70EEC10A5D
:1004300030EE800A84ED0C0AD4ED0B0A94ED001A1C
:1004400080EE810A84ED0D0A94ED0C1AD4ED011AA8
:10045000C1EE210AC4ED0E0A30EE601A01E020E080
:100460003AE030EE200AF6EE000A84ED0F1A20EE94
:10047000200A84ED100A30EE010A84ED110A70EEB4
:10048000480AF5EEC00AF1EE10FA01D278EE400A01
:1004900010EE901A514500DA2776B9F1010F26D0F7
:1004A00065E094ED0B0A81B1D4ED0D0A30EE600ADF
:1004B00030EE080A84ED0B0A94ED0C0AD4ED0E0A16
:1004C00030EE600A30EE080AB4E794ED0D1A30EE13
:1004D000411AB0EE480A05E094ED0D1A30EE411ACB
:1004E00094ED030A09EEA00A71EE000A85E7217E69
:1004F00001293CD1002D3ADDB8F1010F0BD0608B02
:1005000064283CD9B4EEC80AF1EE10FA37DD00BF1A
:1005100094ED110A35E0284606F0F3FB9FED1D1B14
:1005200053EC112B06F00CFB41EC190B18EE100AE2
:1005300006F03DFC53EC192B06F060FCE8D3606C30
:1005400006F035FC9FED151B53EC112B06F0F8FA65
:1005500041EC190B18EE100A06F029FC53EC192B8C
:1005600006F038FCD4D3608B6428D1D807E0B8F10A
:10057000010F01D0012802D1207E012801D0B0EE68
:10058000480AD4ED110AC4ED120AA583C4ED098A04
:1005900092E50000666666666666F23FCDCCCCCC1E
:1005A000CCCCEC3F2DE9F04100F500542DED048B4F
:1005B0000D4694F85F04012848D194F86A07002892
:1005C00044D194F85E08012840D1B5F9000094F8B0
:1005D0005F189FEDFE9B392788421ADDB4F96464E9
:1005E000002E15DD94F86008301A06F08AFB53ECF3
:1005F000192B06F0A5FA41EC180B304606F081FBEA
:1006000053EC182B06F096FA06F099FB288000E0D0
:100610002F80B5F9001094F86008814216DAB4F919
:100620006444002C16DD201A06F06BFB53EC192BEA
:1006300006F086FA41EC180B204606F062FB53ECFC
:10064000182B06F077FA06F07AFB2880BDEC048BB5
:10065000BDE8F0812F80F9E72DE9F047044600F569
:1006600000502DED028B0D46B0F80E3890F85F1457
:1006700004F5805813B990F85425EAB301297DD1C7
:1006800090F86A17002979D190F86118012975D17D
:10069000B5F9001090F8620881426FDD5FF0000646
:1006A00004EB460141F6C407B5F90000CF5FB8423C
:1006B0007FDD00EBD072C7EB6201002901D5A7EB0B
:1006C0006201052975DA502873DDD8F88C9C59F839
:1006D000200006F06CFB41EC180B59F8270006F0DF
:1006E00066FB9FEDBC1B53EC112B06F029FA53EC73
:1006F000182B06F083FB00E007E05AD2A01900F5A2
:10070000005090F85B08D0B353E0012947D190F82E
:100710006108012843D1B5F9000096283FDD002685
:1007200004EB460141F6C407B5F90000CF5FB842BB
:1007300031DD00EBD072C7EB6201002901D5A7EBD8
:100740006201052927DA962825DDD8F88C9C59F80E
:10075000200006F02CFB41EC180B59F8270006F09E
:1007600026FB9FED9E1B53EC112B06F0E9F953EC91
:10077000182B06F043FB0ED2A01901E00FE012E0A7
:1007800000F5005090F85B0828B9B5F9000000EBBF
:10079000D07040102880761CF6B2032EC0D3BDEC7A
:1007A000028BBDE8F087B5F9000000EBD070401077
:1007B0002880761CF6B2032EFFF472AFEFE72DE926
:1007C000F041064642F6981037182DED048B0D4681
:1007D0003046FFF741FF29463046FFF7E3FE06F5B6
:1007E000005494F83008052801D0042866D13878E0
:1007F00006F5205800EE900A98ED0E0AF8EE600A11
:100800009FED728BB4EEE00AF1EE10FA02DDD7ED47
:10081000010A01E0D7ED030AB5F9000020EE201A25
:1008200000EE900AF8EEE00AB4EEE01AF1EE10FAEB
:100830001DDDB4F9646497ED041A00EE906AF8EED9
:10084000E00A40EE410A10EE900A06F0B0FA53ECCE
:10085000182B06F075F941EC180B304606F051FAEA
:1008600053EC182B06F066F906F069FA288094F824
:100870004408012822D194F89C0801281ED1B5F91A
:10088000002094F84008111A00D5811A94F89D3878
:10089000994213DD811A00EE101A98ED281AF8EE2D
:1008A000C00A00EE100AB8EE400A01EE600ABDEE82
:1008B000C00A10EE100A288084F8400894F8B90A9B
:1008C000012802D194F8900870B1397DB5F9000083
:1008D000B4F96464821B00D5321A8A421FDD94F891
:1008E0006A17012902D01AE05A21EFE794F85F1441
:1008F000012914D1301A06F004FA9FED3A1B53EC8B
:10090000112B06F01DF941EC180B304606F0F9F9F1
:1009100053EC182B06F00EF906F011FA2880B5F901
:100920000010B4F890099FED319B814214DDB4F9B9
:100930006464301A06F0E5F953EC192B06F000F95F
:1009400041EC180B304606F0DCF953EC182B06F09E
:10095000F1F806F0F4F92880B5F90000B4F892191E
:10096000884214DAB4F96444601A06F0CAF953EC08
:10097000192B06F0E5F841EC180B204606F0C1F9FA
:1009800053EC182B06F0D6F806F0D9F928805DE66E
:1009900070B50C4642F6F411421841F6BC014318FA
:1009A00000F500502DED028BB0F90E18B4F900508F
:1009B00001EB410101EBD176A5EB6601002901D5E0
:1009C000C5EB660190F89558A94213E000000000BD
:1009D0000000D03F000000000000F83F00000000D1
:1009E000000004409A9999999999C93F9A999999BF
:1009F0009999B93F12DA90F85B1890F85C58B3F9FE
:100A00000E30294490F85D582944994206D190F857
:100A10009B18012904D190F8441809B1002100E085
:100A2000012115780023012D04D081B1D178491C12
:100A3000D1700DE009B1D37002E0D178491CD170BA
:100A4000D1785578A9420AD3D370137007E0D370D8
:100A5000D1789578A94202D3D37001211170B0F9F1
:100A60000E18B0F98C688D1B00D5751AB0F9866424
:100A7000B54203DD1370BDEC028B70BD1278012A04
:100A8000F9D1B4F900305A1A00D5CA1AB242F2DDCF
:100A9000B0F96454E81A06F034F91FED341B53EC36
:100AA000112B06F04DF841EC180B284606F029F9F9
:100AB00053EC182B06F03EF806F041F92080DAE7F7
:100AC00070B50C4642F6F011421841F6BC014318CD
:100AD0002DED028B00F50050B4F90050B0F90E680E
:100AE000A91B00D5711B90F89558A94212DA90F80D
:100AF0005B1890F85C58B3F90E30294490F85D58B3
:100B00002944994206D190F89B18012904D190F804
:100B1000441809B1002100E0012115780023012DBE
:100B200004D081B1D178491CD1700DE009B1D370E6
:100B300002E0D178491CD170D1785578A9420AD306
:100B4000D370137007E0D370D1789578A94202D39F
:100B5000D37001211170B0F90E18B0F98C688D1B9B
:100B600000D5751AB0F98664B54201DD137082E7CD
:100B70001278012AFBD1B4F90020531A00D58B1A40
:100B8000B342F4DDB0F96454A81A06F0BAF81FEDC8
:100B9000711B53EC112B05F0D3FF41EC180B2846C9
:100BA00006F0AFF853EC182B05F0C4FF06F0C7F8B9
:100BB000208060E770B50C460546FFF781FF2146AF
:100BC0002846BDE87040E3E6F0B542F6D41283183B
:100BD00000F50050002290F8546536B390F857475E
:100BE000012C2DD0B0F90E4890F84178E51B00D5C6
:100BF0003D1B9F79BD4203DA90F85657012D2BD04B
:100C000090F845586D1CEDB280F845581F78BD42EC
:100C100008D900BF80F8414880F8422880F845286C
:100C200080F84628012E1DD020E090F80E3880F87C
:100C3000413880F8422880F8452880F8462815E099
:100C400090F84648641CE4B280F846485D78AC42AF
:100C5000E8D990F80E48DDE790F84248641C80F827
:100C60004248DBE790F85647012C0BD080F8442827
:100C700090F80E3880F8413880F8422890F84328E0
:100C80006AB112E090F842485B889C4203D8B0F900
:100C9000EA459C4200DB012280F84428EEE790F808
:100CA0004428012A01D180F8401890F8441880F8AF
:100CB0004318F0BD2DE9F04742F6F41141F6BC02AD
:100CC0008618415C4FF0000A4FF0FF32544601296C
:100CD00050D100F5005393F8571701294AD100214C
:100CE000B6F90EC036E000BFB3F90E9806EB410529
:100CF00009EB4907B5F9085007EBD777A5EB67086B
:100D0000B8F1000F01D5C5EB670808F0FF08B5EB97
:100D1000670F0ADA09EBD977B5EB670F05DD4518E0
:100D200005F5005595F85B583DB1451805F500559A
:100D300095F85B58012D03D00AE0641CE4B207E08B
:100D400093F89558454503D9D04501D9C2464AB2D2
:100D5000491CC9B28C45C7DC511C0BD0104400F5AE
:100D6000005090F85B18012904D1002C02D1002119
:100D700080F85B1815E52DE9F04742F6F01141F6D1
:100D8000BC02415C86184FF0000A4FF0FF33D0469A
:100D900001294CD1002100F50054B6F90E7035E060
:100DA00006EB4102B2F90850B4F90E28B5EB020C7B
:100DB00001D5A2EB050C0CF0FF0902EB420C0CEB89
:100DC000DC7CB5EB6C0F0ADA02EBD272B5EB620F8A
:100DD00005DD421802F5005292F85B283AB142183C
:100DE00002F5005292F85B28012A05D00CE008F1C8
:100DF000010808F0FF0807E094F895584D4503D91D
:100E0000D14501D9CA464BB2491CC9B28F42C7DC91
:100E1000591C0CD0184400F5005090F85B180129BB
:100E200005D1B8F1000F02D1002180F85B18B8E4B9
:100E300010B50446FFF79FFF2046BDE8104039E794
:100E40002DE9F0479A4600234FF0010C00F50050C1
:100E5000089D74E00024EC54BAF90040B0F986749F
:100E600032F9136004EB0708B04503DDA4EB070873
:100E7000B04520DB04F1010808EBD87907EB6908DD
:100E8000B04503DDC7EB6908B04514DB07EB440848
:100E9000B04503DDC7EB4408B0450CDB641C4FEAEA
:100EA000E47804EB987407EBA408B04505DDC7EBC4
:100EB000A404B44201DA05F803C090F85445012CAB
:100EC0003BD190F83048032C05D0022C03D0052CE0
:100ED00001D0042C31D1B0F9EA45042C2DDDB0F954
:100EE0000E9832F9134009EBD976A4EB6607002F70
:100EF00001D5C4EB6607B0F98664B7421BDBB4EBDF
:100F0000090701D5A9EB0407B74214DB09EB490730
:100F100007EBD778A4EB6807002F01D5C4EB68076F
:100F2000B74208DBC9F1000714EB470701D5C4EB52
:100F30004907B74201DA05F803C05B1CDBB28B42FC
:100F400088DB2EE42DE9F04F81462DED0A8B42F629
:100F5000DC11084499B041F6BC0109EB010641F6E9
:100F60009C41159009EB010017900020019009F5B4
:100F7000205000270F9020F85B7F09F50054877000
:100F8000B4F80E08A4F8F205B0EE408A484604F022
:100F90000BF842F65B0184F8367A494448460A91D8
:100FA00004F0E1FA484604F09BF909F5105595ED77
:100FB000310AB4EEC80AF1EE10FA0FDDB4F85007AA
:100FC000401C00B2A4F85007142801DD84F8F27721
:100FD000322805DD3220A4F8500701E0A4F850774C
:100FE000484604F013FD95ED310ADFEDFD8A9FEDD3
:100FF000FDAB9FEDFECA9FEDFE9B42F6EC0109EBB7
:101000000100B4EEC80A42F6FF011090F1EE10FAAA
:1010100009EB010009F5805A169008DD94F87C056B
:1010200028B9B4F8E00410B9B4F8DE04D0B194F8EB
:101030005F0410B1012805D008E0B4F95017002969
:1010400010DA03E0B4F9501726290BDA94F8B91A2C
:10105000012902D194F8901821B194F86A17002957
:101060007DD0C1E2A4F84477A4F83C77A4F8E274F8
:1010700001201390B6F90800BB46ADF81800B6F988
:101080000A7000EBD072C7EB6201002901D5A7EB13
:101090006201052919DA502817DDD6F8D0138846E1
:1010A00051F8200005F083FE41EC1B0B58F8270097
:1010B00005F07DFE53EC192B05F042FD53EC1B2B84
:1010C00005F09CFE01D2708926E0BDF91800B6F942
:1010D0000C7000EBD072C7EB6201002901D5A7EBC1
:1010E000620105291ADA502818DDD6F8D01388468F
:1010F00051F8200005F05BFE41EC1B0B58F827006F
:1011000005F055FE53EC192B05F01AFD53EC1B2B83
:1011100005F074FE02D2B089ADF81800BDF91800D0
:101120001490B4F80E08A4F81008B4F9F238484640
:10113000109A169902F0A2F8A4F80E08B4F98C04DB
:10114000BDF9181088427DDDB4F89204401C00B24D
:10115000A4F8920494F85F24012A0CD000E01BE26A
:10116000B4F98E1488425CDBA4F892B494F84E076C
:10117000002868D0AFE1B4F98E24904252DA84F8A6
:1011800036BA59460020B6F90E201FE006EB4003A0
:10119000B4F96484B4F99874B3F90830A8EB070C77
:1011A0009C4511DA47449F420EDD06EB4000008962
:1011B000ADF81800012084F8360AA4F89A14A4F8AF
:1011C000E014A4F8DE1404E0401C00B28242DDDC2E
:1011D00019B3BDF91800D6F8D01395EDC71A01EB75
:1011E0008001D1ED000A80EE810A10EE101AB1F1F3
:1011F0007A5F12DBD5ED6D0A95EDCB0A60EEA80A99
:10120000B4EEE00AF1EE10FA0BDD94F8571700295E
:1012100007D1B4F96A148142F6DDB4F86404ADF87C
:1012200018005BE1B6F90A70B4F96424B81A00D565
:10123000D01B8B1A00D5531A984201DAADF81870FA
:1012400011AA01E065E060E0BDF91810484603F01E
:1012500061FEB4F9E014B4F9DA0481421CDBB4F99C
:101260009A1491FBF0F000EE100A0F99F8EEC00A04
:1012700091ED0E0A159991ED001A20EE010AF4EE97
:10128000C00AF1EE10FA01D2ADF81800A4F89AB431
:101290005846A4F8E0B41FE0B4F9DE1481421EDB26
:1012A000B4F99A1491FBF0F00F9900EE100AD1ED09
:1012B0000E0A1599B8EEC00A91ED011A60EE810A86
:1012C000B4EEE00AF1EE10FA01DDADF81800A4F872
:1012D0009AB45846A4F8DEB48DF8440003E09DF8B3
:1012E000440001280AD0D5ED6D0A95EDCB0A60EED9
:1012F000A80AB4EEE00AF1EE10FA03DDB4F86404D3
:10130000ADF81800A4F892B4E8E07089ADF81800C0
:10131000E1E094F85F044FF07E5801285FD111AAF4
:10132000484603F0F7FDB4F9E014B4F9DA04814259
:101330001DDBB4F99A1491FBF0F00F9900EE100A3E
:10134000D1ED0E0A1599B8EEC00A91ED001A60EEC3
:10135000810AB4EEE00AF1EE10FA01D2ADF81800FD
:10136000A4F89AB4A4F8E0B48DF844B062E0B4F9FB
:10137000DE1481425ADBB4F99A1491FBF0F00F9914
:1013800000EE100AD1ED0E0A1599B8EEC00A91EDE3
:10139000011A60EE810AB4EEE00AF1EE10FA01DD06
:1013A000ADF81800A4F89AB4A4F8DEB48DF844B0EF
:1013B00094F86A0701283DD1B4F96007BDF91820F7
:1013C000A0F10801914235DD5A2833DAB6F9080058
:1013D000B6F90A10884213DD494205220CE06FE09D
:1013E0009A99993E000000000000E03F0000FA4397
:1013F000000000000000F83F02EB4101084402E059
:10140000C1EB4000401D0A2803D9B4F86404ADF8CC
:101410001800BDF9180032280CDAD5F8E803404569
:1014200008DAB4F86404ADF8180003E09DF844004D
:1014300001280AD0D5ED6D0A95EDCB0A60EEA80A19
:10144000B4EEE00AF1EE10FA29DDB4F96474BDF9E6
:101450001800C11B00D5391AB4F9982491421EDD39
:10146000874208DB391A0A2905DA642F03DD94F86C
:101470005717012913D0381A05F043FC53EC1A2BE7
:1014800005F05EFB41EC190B384605F03AFC53ECD5
:10149000192B05F04FFB05F052FCADF81800B4F91C
:1014A0006404BDF91810081A1430282808D94846D1
:1014B00003F0AFFD012803D1B4F86404ADF81800BF
:1014C000A4F892B4D6F8DC03404504DC18EE100A08
:1014D000FE49884202DA012084F85F04B4F9F2057B
:1014E00000EE100AB8EEC00A85ED7D0ABDF91800BD
:1014F00000EE100AB8EEC00A85EDCD0A85EDCE0AE1
:10150000A4F844B794F86A1721B194F85F0401284D
:101510003ED0ECE394F85F140129FAD1B6F9081033
:10152000814235D1B4F86017014409B2A4F86017BC
:10153000D6F8D023D5EDD90A02EB800090ED000A51
:1015400030EE200A85EDD90AB4F86807401C00B2D5
:10155000A4F868070A281BD1B2EE041A91FBF0F038
:10156000C0EE010A00B200EE100AA4F86007D849E4
:10157000B8EEC00AC5EDD90A0F9880ED0E0A10EE3C
:10158000900A884201DA85EDD9CA012084F86A07F9
:10159000012084F8BC07AAE3012825D1B4F9680723
:1015A000002821DDB4F9601700EE100A91FBF0F17C
:1015B00009B2A4F86017B8EEC01AD5EDD90A80EECA
:1015C000810A00EE901AC249F8EEE00A85EDD90AC8
:1015D0000F98C0ED0E0A10EE100A884201DA85ED70
:1015E000D9CA012084F86A0700201390A4F89274E5
:1015F00095ED3F0AD5ED2D0AB4EEE00AF1EE10FAB2
:1016000014DD0A98179B00900833B6F90E101F4698
:1016100006F108024846FFF713FC16980090B4F94B
:10162000F2183B464846109AFFF70AFC94F88E08D9
:10163000012802D14846FFF7FBFBB4F96474B4F902
:101640006604874209DBB4F96804874205DCB4F913
:1016500076040390B4F9780424E0B4F96A0487426C
:1016600009DBB4F96C04874205DCB4F97A04039011
:10167000B4F97C0416E0B4F96E04874209DBB4F9CE
:1016800070148F4205DCB4F97E040390B4F9800431
:1016900008E08742B4F98204039001DA032001E0F4
:1016A000B4F984040D90B6F90810D6F8D00395ED7E
:1016B000300A00EB8100D0ED000AF4EEC00AF1EE32
:1016C00010FA01D3B0EE600A002084F8360AB6F9A9
:1016D0000E102CE009EB000202F5005292F85B2894
:1016E0001ABB06EB40020D9BB2F90820FB1A9A4286
:1016F0001BDD039B3B449A4217DAD6F8D03303EB49
:10170000820292ED001AC1EE000A95ED2E1AF4EE57
:10171000C10AF1EE10FA08DD06EB40010989ADF8C7
:101720001810012184F8361A05E0401C00B24FF46D
:1017300080688142CEDC8346B4F90E0805F0E1FAF8
:1017400053EC192B05F0FCF953EC1A2B05F0F8F9C2
:1017500041EC190B384605F0D4FA53EC192B05F07F
:101760004DFB94F8360A38D2B0BB4FF0000BC6469A
:1017700043465846B6F90EC0B4F964842AE000BF67
:1017800006EB4002B2F90820B8EB020101D5A2EB4A
:101790000801B4F90E7809B207EB470707EBD777D2
:1017A0001297A2EB6707002F02D5129FC2EB6707C3
:1017B000052F00DA714699420ADA94F856772FB16C
:1017C000012F05D1A8F10607BA4201DD0B46834679
:1017D000401C00B28445D3DC70E0E8BB4FF0000B46
:1017E00040465946B6F90E302CE000BF09EB010225
:1017F00002F5005292F85B2842B1424682421FDA5B
:1018000094F85677D7B1012F0DD019E006EB4102BD
:10181000B4F964C4B2F90870BCEB070201D5A7EBB8
:101820000C0212B2EAE706EB410CB4F90E78BCF9EF
:1018300008C007EBD777BCEB670F01DD10468B467E
:10184000491C09B28B42D1DC404537D14FF0000B27
:101850005946B4F964842FE030E000BF06EB41073D
:10186000B7F90870B8EB070201D5A7EB0802B4F985
:101870000EC812B20CEB4C0C0CEBDC7EA7EB6E0C22
:10188000BCF1000F01D5C7EB6E0CBCF1050F01DAFE
:101890004FF4806282420DDA94F856C7BCF1000F13
:1018A00006D0BCF1010F05D1A8F1060C674501DD9A
:1018B00010468B46491C09B28B42CFDC94F85B186A
:1018C00094F85C08014494F85D0803E0CDCCCC3D6D
:1018D0000000FA430144BAF9CA08814223D1012029
:1018E000019094F8B00A202802D2401C84F8B00A73
:1018F00006EB4B000890B0F90880B4F964740D98B9
:10190000381A9FEDFB9B9FEDFCAB9FEDFDBB804527
:1019100061DD039A3A4490455DDAB7EB080005D5DE
:10192000A8EB070103E000200190DFE70146B4F9CE
:10193000722491421BDA09EB0B0101F5005191F879
:101940005B18E9B3D6F8D023D5ED2F0A02EB880156
:1019500091ED000AB4EEE00AF1EE10FA66DD00BF88
:1019600005F0CFF941EC100B53EC1A2B21E0D6F81F
:10197000D023D5ED2F0A02EB880191ED000AB4EED9
:10198000E00AF1EE10FA51DD09EB0B0101F500510F
:1019900091F85B18A1B194F8B01A062903D8B4F9EC
:1019A000EA150F2945DA05F0ACF953EC1B2B41EC95
:1019B000100B51EC100B05F0C3F841EC190B00E0D3
:1019C0002AE0384605F09DF953EC192B05F0B2F8E2
:1019D00005F0B5F95CE0804567DCB7EB080002D59F
:1019E000A8EB070100E00146B4F97224914227DA1E
:1019F000D6F8D023D5ED2F0A02EB880191ED000A2D
:101A0000B4EEE00AF1EE10FA09DD09EB0B0000F587
:101A1000005090F85B0848B9ADF818803AE009EB3F
:101A20000B0101F5005191F85B1811B1ADF8187078
:101A300030E005F066F941EC100B53EC192BB8E7D8
:101A400009EB0B0000F5005090F85B08F0B9B4F911
:101A50000E0800EBD072B8EB620F17DD05F051F9FC
:101A60009FEDA91B53EC112B05F06AF841EC1C0B00
:101A7000404605F046F953EC1C2B05F0ABF905D2B6
:101A80000898B4F96474B0F9080023E0B4F8640469
:101A9000ADF8180011AABDF91810484603F01DFD55
:101AA0009DF8440001282AD02DE003993944884547
:101AB000F0DBB4F8E00438B109EB0B0000F500509E
:101AC00090F85B08A8B117E0B4F90E08874203DA72
:101AD000019909B1381AACE709EB0B0101F5005186
:101AE00091F85B18012907D0804505DCA7EB0800B9
:101AF00036E7A7EB080056E7A7EB080099E7B4F82C
:101B00006404ADF8180011AABDF91810484603F096
:101B100001FAB4F9E014B4F9DA0481422ADB94F84A
:101B20007C15E1B9D5ED6D0A95EDCB0A60EEA80AFA
:101B3000B4EEE00AF1EE10FA11D2B4F96424BDF962
:101B400018108A4211DCB4F99A2492FBF0F0884212
:101B500002DA00BFADF8180000208DF84400002024
:101B6000A4F89A04A4F8E00419E0B4F99A1491FBDB
:101B7000F0F0EFE7B4F9DE14814210DB94F87C1545
:101B800041B9B4F99A1491FBF0F0ADF818000020B7
:101B90008DF844000020A4F89A04A4F8DE049DF80F
:101BA00044008046012827D1B4F9EA05B4F96474E9
:101BB0003C28BDF91800A7EB000006DC05F0A1F8F1
:101BC00041EC100B53EC1B2B05E005F09AF853EC9D
:101BD0001A2B41EC100B51EC100B04F0B1FF41EC4F
:101BE000190B384605F08DF853EC192B04F0A2FFC1
:101BF00005F0A5F8ADF818001799B4F96404B1F927
:101C00000820811A00D5111AB4F98634994208DAED
:101C1000B8F1000F05D1BDF9181001444910ADF815
:101C20001810002184F8461709EB0B0101F500514B
:101C300091F85B1801290CD10899B1F908100A1A1A
:101C400000D5421A9A4204DAADF81810012084F83F
:101C5000460742F2F37209EB020342F2CA72B4F988
:101C6000C81748464A4403F062FFB4F80E08A4F8C7
:101C70001008B4F9F2384846109A169901F0FEFAA5
:101C8000A4F80E08972831DDB4F9101800EBD073D2
:101C9000C1EB6302002A01D5A1EB6302B4F98614FB
:101CA0008A4223DABAF9A47CC21700EB9270C7EB20
:101CB000A002002A01D5A7EBA0028A4213DBBAF9E1
:101CC000A67CC7EBA002002A01D5A7EBA0028A429E
:101CD00009DBBAF9A87CC7EBA002002A01D5A7EB63
:101CE000A0028A4202DA5810A4F80E0810E06CE252
:101CF0007B14AE47E17A843F9A9999999999B93FB3
:101D0000000000000000D03F666666666666F23F2F
:101D1000B4F90E08AB21B1EB400F3FDDB4F9101858
:101D2000C1EB4002002A01D5A1EB4002B4F98614B0
:101D30008A4233DABAF9A42C831A00D5131A8B42DB
:101D40000DDBBAF9A67CC31B00D53B1A8B4206DB20
:101D5000BAF9A87CC31B00D53B1A8B421EDAC2EB32
:101D60004003002B01D5A2EB40038B4213DBBAF9F1
:101D7000A63CC3EB4002002A01D5A3EB40028A42F5
:101D800009DBBAF9A83CC3EB4002002A01D5A3EB5A
:101D900040028A4202DA4000A4F80E08B4F90E1894
:101DA000E320B0EB410F5BDA032791FBF7F2B4F9C4
